:020000040800F2
:1060000000FC0020A5C7000821C8000823C800081C
:1060100025C8000827C8000829C80008000000009B
:106020000000000000000000000000002BC8000875
:106030002DC80008000000002FC8000831C8000863
:10604000F5C70008F5C70008F5C70008F5C7000840
:10605000F5C70008F5C70008A7C80008ADC80008C4
:10606000B3C80008B9C80008BFC800085DC8000868
:1060700069C8000875C8000881C80008F5C700088D
:10608000F5C70008F5C70008F5C70008F5C7000800
:10609000F5C70008F5C70008C5C80008F5C700081F
:1060A000F5C70008F5C70008F5C70008F5C70008E0
:1060B000F5C70008F5C70008F5C70008F5C70008D0
:1060C00071C900087DC90008F5C70008F5C70008B8
:1060D0008DC80008A5C8000859C90008F5C7000800
:1060E000F5C7000805C9000845C80008F5C700083D
:1060F000F5C70008F5C70008F5C70008F5C7000890
:10610000F5C70008F5C7000851C80008F5C7000822
:10611000F5C70008F5C70008F5C70008F5C700086F
:10612000F5C70008F5C70008F5C70008F5C700085F
:08613000F5C70008F5C70008DF
:1061400010B5054C237833B9044B13B10448AFF3B1
:1061500000800123237010BD880D00200000000086
:10616000D4FF020808B5034B1BB103490348AFF342
:10617000008008BD000000008C0D0020D4FF020844
:1061800010F8012B11F8013B012A28BF9A42F7D0E1
:10619000D01A7047034613F8012B002AFBD1181AB6
:1061A00001387047000000000000000000000000FF
:1061B00001F0FF01102A2BDB10F0070F08D010F8B8
:1061C000013B013A8B422DD010F0070F42B3F6D1BC
:1061D000F0B441EA012141EA014122F007047FF0D5
:1061E00000070023F0E80256083C85EA010586EA2C
:1061F000010685FA47F5A3FA87F586FA47F6A5FA68
:1062000087F68EB9EED1F0BC01F0FF0102F0070273
:1062100032B110F8013B013A83EA010313B1F8D11E
:106220000020704701387047002D06BF35460338FF
:10623000073815F0010F07D1013015F4807F02BF38
:10624000013015F4C03F0130F0BC0138704700BF89
:1062500081F0004102E000BF83F0004330B54FEA17
:1062600041044FEA430594EA050F08BF90EA020F84
:106270001FBF54EA000C55EA020C7FEA645C7FEA17
:10628000655C00F0E2804FEA5454D4EB5555B8BF3A
:106290006D420CDD2C4480EA020281EA030382EAAB
:1062A000000083EA010180EA020281EA0303362D3D
:1062B00088BF30BD11F0004F4FEA01314FF4801C10
:1062C0004CEA113102D0404261EB410113F0004F22
:1062D0004FEA03334CEA133302D0524263EB4303D9
:1062E00094EA050F00F0A780A4F10104D5F1200E77
:1062F0000DDB02FA0EFC22FA05F2801841F10001D2
:1063000003FA0EF2801843FA05F359410EE0A5F1A5
:1063100020050EF1200E012A03FA0EFC28BF4CF0D6
:10632000020C43FA05F3C01851EBE37101F000458C
:1063300007D54FF0000EDCF1000C7EEB00006EEB99
:106340000101B1F5801F1BD3B1F5001F0CD3490823
:106350005FEA30004FEA3C0C04F101044FEA44527A
:1063600012F5800F80F09A80BCF1004F08BF5FEA01
:10637000500C50F1000041EB045141EA050130BDE1
:106380005FEA4C0C404141EB0101013C28BFB1F5F3
:10639000801FE9D291F0000F04BF01460020B1FA3E
:1063A00081F308BF2033A3F10B03B3F120020CDA11
:1063B0000C3208DD02F1140CC2F10C0201FA0CF0EF
:1063C00021FA02F10CE002F11402D8BFC2F1200C54
:1063D00001FA02F120FA0CFCDCBF41EA0C0190400A
:1063E000E41AA2BF01EB0451294330BD6FEA040453
:1063F0001F3C1CDA0C340EDC04F11404C4F120023E
:1064000020FA04F001FA02F340EA030021FA04F34F
:1064100045EA030130BDC4F10C04C4F1200220FAA6
:1064200002F001FA04F340EA0300294630BD21FAE4
:1064300004F0294630BD94F0000F83F4801306BFAA
:1064400081F480110134013D4EE77FEA645C18BF9E
:106450007FEA655C29D094EA050F08BF90EA020F35
:1064600005D054EA000C04BF1946104630BD91EA2D
:10647000030F1EBF0021002030BD5FEA545C05D130
:106480004000494128BF41F0004130BD14F580046F
:106490003CBF01F5801130BD01F0004545F0FE41E3
:1064A00041F470014FF0000030BD7FEA645C1ABF18
:1064B000194610467FEA655C1CBF0B46024650EA4F
:1064C000013406BF52EA033591EA030F41F400217B
:1064D00030BD00BF90F0000F04BF0021704730B501
:1064E0004FF4806404F132044FF000054FF00001D6
:1064F00050E700BF90F0000F04BF0021704730B597
:106500004FF4806404F1320410F0004548BF40426B
:106510004FF000013EE700BF42004FEAE2014FEAC0
:1065200031014FEA02701FBF12F07F4393F07F4F9B
:1065300081F06051704732F07F4208BF704793F09E
:106540007F4F04BF41F40021704730B54FF46074B1
:1065500001F0004521F000411CE700BF50EA0102B4
:1065600008BF704730B54FF000050AE050EA01025D
:1065700008BF704730B511F0004502D5404261EBCD
:1065800041014FF4806404F132045FEA915C3FF40E
:10659000D8AE4FF003025FEADC0C18BF03325FEAAB
:1065A000DC0C18BF033202EBDC02C2F1200300FA5C
:1065B00003FC20FA02F001FA03FE40EA0E0021FA81
:1065C00002F11444BDE600BF70B54FF0FF0C4CF46F
:1065D000E06C1CEA11541DBF1CEA135594EA0C0F21
:1065E00095EA0C0F00F0DEF82C4481EA030621EA5C
:1065F0004C5123EA4C5350EA013518BF52EA033597
:1066000041F4801143F4801338D0A0FB02CE4FF048
:106610000005E1FB02E506F00042E0FB03E54FF078
:106620000006E1FB03569CF0000F18BF4EF0010E70
:10663000A4F1FF04B6F5007F64F5407404D25FEA6C
:106640004E0E6D4146EB060642EAC62141EA55511F
:106650004FEAC52040EA5E504FEACE2EB4F1FD0C61
:1066600088BFBCF5E06F1ED8BEF1004F08BF5FEADF
:10667000500E50F1000041EB045170BD06F0004691
:1066800046EA010140EA020081EA0301B4EB5C043E
:10669000C2BFD4EB0C0541EA045170BD41F4801136
:1066A0004FF0000E013C00F3AB8014F1360FDEBF5B
:1066B000002001F0004170BDC4F10004203C35DA37
:1066C0000C341BDC04F11404C4F1200500FA05F3BA
:1066D00020FA04F001FA05F240EA020001F000425B
:1066E00021F0004110EBD37021FA04F642EB0601D1
:1066F0005EEA430E08BF20EAD37070BDC4F10C04FB
:10670000C4F1200500FA04F320FA05F001FA04F2BE
:1067100040EA020001F0004110EBD37041F10001AA
:106720005EEA430E08BF20EAD37070BDC4F12005B5
:1067300000FA05F24EEA020E20FA04F301FA05F21D
:1067400043EA020321FA04F001F0004121FA04F2C5
:1067500020EA020000EBD3705EEA430E08BF20EA95
:10676000D37070BD94F0000F0FD101F000464000CF
:1067700041EB010111F4801F08BF013CF7D041EA51
:10678000060195F0000F18BF704703F00046520055
:1067900043EB030313F4801F08BF013DF7D043EA26
:1067A0000603704794EA0C0F0CEA135518BF95EADC
:1067B0000C0F0CD050EA410618BF52EA4306D1D163
:1067C00081EA030101F000414FF0000070BD50EA82
:1067D000410606BF1046194652EA430619D094EA0C
:1067E0000C0F02D150EA013613D195EA0C0F05D1F6
:1067F00052EA03361CBF104619460AD181EA03014A
:1068000001F0004141F0FE4141F470014FF0000001
:1068100070BD41F0FE4141F4780170BD70B54FF09C
:10682000FF0C4CF4E06C1CEA11541DBF1CEA13551C
:1068300094EA0C0F95EA0C0F00F0A7F8A4EB0504FE
:1068400081EA030E52EA03354FEA013100F08880F5
:106850004FEA03334FF0805545EA131343EA1263BE
:106860004FEA022245EA111545EA10654FEA002673
:106870000EF000419D4208BF964244F1FD0404F52C
:10688000407402D25B084FEA3202B61A65EB030588
:106890005B084FEA32024FF480104FF4002CB6EB45
:1068A000020E75EB030E22BFB61A754640EA0C00C5
:1068B0005B084FEA3202B6EB020E75EB030E22BF05
:1068C000B61A754640EA5C005B084FEA3202B6EB46
:1068D000020E75EB030E22BFB61A754640EA9C0005
:1068E0005B084FEA3202B6EB020E75EB030E22BFD5
:1068F000B61A754640EADC0055EA060E18D04FEA93
:10690000051545EA16754FEA06164FEAC30343EA32
:1069100052734FEAC2025FEA1C1CC0D111F4801FFF
:106920000BD141EA00014FF000004FF0004CB6E7F8
:1069300011F4801F04BF01430020B4F1FD0C88BF97
:10694000BCF5E06F3FF6AFAEB5EB030C04BFB6EBA2
:10695000020C5FEA500C50F1000041EB045170BD95
:106960000EF0004E4EEA113114EB5C04C2BFD4EBC2
:106970000C0541EA045170BD41F480114FF0000E46
:10698000013C90E645EA060E8DE60CEA135594EAC2
:106990000C0F08BF95EA0C0F3FF43BAF94EA0C0FC5
:1069A0000AD150EA01347FF434AF95EA0C0F7FF43A
:1069B00025AF104619462CE795EA0C0F06D152EA8E
:1069C00003353FF4FDAE1046194622E750EA410672
:1069D00018BF52EA43067FF4C5AE50EA41047FF483
:1069E0000DAF52EA43057FF4EBAE12E74FF0FF3CE8
:1069F00006E000BF4FF0010C02E000BF4FF0010CB9
:106A00004DF804CD4FEA410C7FEA6C5C4FEA430C31
:106A100018BF7FEA6C5C1BD001B050EA410C0CBF80
:106A200052EA430C91EA030F02BF90EA020F0020E2
:106A3000704710F1000F91EA030F58BF994208BF49
:106A400090422CBFD8176FEAE37040F00100704706
:106A50004FEA410C7FEA6C5C02D150EA013C07D15D
:106A60004FEA430C7FEA6C5CD6D152EA033CD3D0A8
:106A70005DF8040B704700BF8446104662468C46A2
:106A80001946634600E000BF01B5FFF7B7FF0028D5
:106A900048BF10F1000F01BD4DF808EDFFF7F4FFFE
:106AA0000CBF012000205DF808FB00BF4DF808ED89
:106AB000FFF7EAFF34BF012000205DF808FB00BFAC
:106AC0004DF808EDFFF7E0FF94BF012000205DF8CE
:106AD00008FB00BF4DF808EDFFF7CEFF94BF012083
:106AE00000205DF808FB00BF4DF808EDFFF7C4FF7C
:106AF00034BF012000205DF808FB00BF4FEA410CC5
:106B00007FEA6C5C02D150EA013C0AD14FEA430CA7
:106B10007FEA6C5C02D152EA033C02D14FF00000E4
:106B200070474FF0010070474FEA410212F5001222
:106B300015D211D56FF47873B3EB625212D94FEAC4
:106B4000C12343F0004343EA505311F0004F23FAAE
:106B500002F018BF404270474FF00000704750EA03
:106B6000013005D111F0004008BF6FF000407047C0
:106B70004FF00000704700BF4A0011D212F500121A
:106B800011D20DD56FF47873B3EB62520ED44FEA85
:106B9000C12343F0004343EA505323FA02F0704705
:106BA0004FF00000704750EA013002D14FF0FF3043
:106BB00070474FF00000704780F0004002E000BFD7
:106BC00081F0004142001FBF5FEA410392EA030FD8
:106BD0007FEA226C7FEA236C6AD04FEA1262D2EB22
:106BE0001363C1BFD218414048404140B8BF5B4227
:106BF000192B88BF704710F0004F40F4000020F0C0
:106C00007F4018BF404211F0004F41F4000121F0D5
:106C10007F4118BF494292EA030F3FD0A2F101021F
:106C200041FA03FC10EB0C00C3F1200301FA03F15D
:106C300000F0004302D5494260EB4000B0F5000F80
:106C400013D3B0F1807F06D340084FEA310102F13F
:106C50000102FE2A51D2B1F1004F40EBC25008BFF1
:106C600020F0010040EA03007047490040EB0000BB
:106C7000013A28BFB0F5000FEDD2B0FA80FCACF1BC
:106C8000080CB2EB0C0200FA0CF0AABF00EBC250E9
:106C900052421843BCBFD0401843704792F0000FD7
:106CA00081F4000106BF80F400000132013BB5E72A
:106CB0004FEA41037FEA226C18BF7FEA236C21D0A0
:106CC00092EA030F04D092F0000F08BF0846704705
:106CD00090EA010F1CBF0020704712F07F4F04D1D3
:106CE000400028BF40F00040704712F100723CBFE6
:106CF00000F50000704700F0004343F0FE4040F410
:106D0000000070477FEA226216BF08467FEA2363CD
:106D10000146420206BF5FEA412390EA010F40F4B8
:106D2000800070474FF0000304E000BF10F0004304
:106D300048BF40425FEA000C08BF704743F09643EB
:106D400001464FF000001CE050EA010208BF704706
:106D50004FF000030AE000BF50EA010208BF70478D
:106D600011F0004302D5404261EB41015FEA010CA2
:106D700002BF84460146002043F0B64308BFA3F19A
:106D80008053A3F50003BCFA8CF2083AA3EBC2537C
:106D900010DB01FA02FC634400FA02FCC2F120029B
:106DA000BCF1004F20FA02F243EB020008BF20F0D2
:106DB0000100704702F1200201FA02FCC2F1200238
:106DC00050EA4C0021FA02F243EB020008BF20EA2D
:106DD000DC7070474FF0FF0C1CEAD0521EBF1CEA5B
:106DE000D15392EA0C0F93EA0C0F6FD01A4480EA49
:106DF000010C400218BF5FEA41211ED04FF0006332
:106E000043EA501043EA5111A0FB01310CF000405D
:106E1000B1F5000F3EBF490041EAD3715B0040EA83
:106E2000010062F17F02FD2A1DD8B3F1004F40EB53
:106E3000C25008BF20F00100704790F0000F0CF026
:106E4000004C08BF49024CEA502040EA51207F3AEA
:106E5000C2BFD2F1FF0340EAC250704740F40000C5
:106E60004FF00003013A5DDC12F1190FDCBF00F0B6
:106E700000407047C2F10002410021FA02F1C2F164
:106E8000200200FA02FC5FEA310040F1000053EA00
:106E90004C0308BF20EADC70704792F0000F00F04E
:106EA000004C02BF400010F4000F013AF9D040EA54
:106EB0000C0093F0000F01F0004C02BF490011F4E8
:106EC000000F013BF9D041EA0C018FE70CEAD153E6
:106ED00092EA0C0F18BF93EA0C0F0AD030F0004C66
:106EE00018BF31F0004CD8D180EA010000F000401A
:106EF000704790F0000F17BF90F0004F084691F0D8
:106F0000000F91F0004F14D092EA0C0F01D1420211
:106F10000FD193EA0C0F03D14B0218BF084608D1DA
:106F200080EA010000F0004040F0FE4040F4000024
:106F3000704740F0FE4040F4400070474FF0FF0CB7
:106F40001CEAD0521EBF1CEAD15392EA0C0F93EAFE
:106F50000C0F69D0A2EB030280EA010C49024FEA50
:106F6000402037D04FF0805343EA111143EA101309
:106F70000CF000408B4238BF5B0042F17D024FF4C1
:106F8000000C8B4224BF5B1A40EA0C00B3EB510F9C
:106F900024BFA3EB510340EA5C00B3EB910F24BF85
:106FA000A3EB910340EA9C00B3EBD10F24BFA3EB0A
:106FB000D10340EADC001B0118BF5FEA1C1CE0D1D2
:106FC000FD2A3FF650AF8B4240EBC25008BF20F085
:106FD000010070470CF0004C4CEA50207F32C2BFD9
:106FE000D2F1FF0340EAC250704740F400004FF076
:106FF0000003013A37E792F0000F00F0004C02BFA7
:10700000400010F4000F013AF9D040EA0C0093F070
:10701000000F01F0004C02BF490011F4000F013BCA
:10702000F9D041EA0C0195E70CEAD15392EA0C0F32
:1070300008D142027FF47DAF93EA0C0F7FF470AF6A
:10704000084676E793EA0C0F04D14B023FF44CAFAD
:1070500008466EE730F0004C18BF31F0004CCAD142
:1070600030F000427FF45CAF31F000437FF43CAF7E
:107070005FE700BF4FF0FF3C06E000BF4FF0010CA0
:1070800002E000BF4FF0010C4DF804CD4FEA400282
:107090004FEA41037FEA226C18BF7FEA236C11D0CC
:1070A00001B052EA530C18BF90EA010F58BFB2EB7F
:1070B000030088BFC81738BF6FEAE17018BF40F0FF
:1070C000010070477FEA226C02D15FEA402C05D1B3
:1070D0007FEA236CE4D15FEA412CE1D05DF8040B38
:1070E000704700BF844608466146FFE70FB5FFF7CB
:1070F000C9FF002848BF10F1000F0FBD4DF808ED83
:10710000FFF7F4FF0CBF012000205DF808FB00BF73
:107110004DF808EDFFF7EAFF34BF012000205DF8CD
:1071200008FB00BF4DF808EDFFF7E0FF94BF01201A
:1071300000205DF808FB00BF4DF808EDFFF7D2FF17
:1071400094BF012000205DF808FB00BF4DF808ED5A
:10715000FFF7C8FF34BF012000205DF808FB00BF27
:1071600042000ED2B2F1FE4F0BD34FF09E03B3EBB1
:10717000126209D44FEA002343F0004323FA02F0DD
:1071800070474FF00000704712F1610F01D14202C9
:1071900002D14FF0FF3070474FF00000704700BF42
:1071A00053B94AB9002908BF00281CBF4FF0FF316E
:1071B0004FF0FF3001F0D2B8ADF1080C6DE904CE0C
:1071C00000F01AF8DDF804E0DDE9022304B07047AE
:1071D000430803F05533C01A830803F0333300F03B
:1071E0003330184400EB101000F00F3000EB00209B
:1071F00000EB0040000E70472DE9F047089E0D4659
:1072000004468E46002B40F082808A42174646D9BB
:10721000B2FA82F24AB1C2F1200105FA02F320FA71
:1072200001F1974041EA030E94404FEA1748230CBE
:10723000BEFBF8FCB9B208FB1CEE43EA0E430CFBA4
:1072400001F098420AD9FB180CF1FF3580F0168145
:10725000984240F21381ACF1020C3B441B1AA4B2D9
:10726000B3FBF8F008FB103344EA034400FB01F1E0
:10727000A14209D93C1900F1FF3380F00181A142FC
:1072800040F2FE8002383C44641A40EA0C4000217F
:107290001EB1D4400023C6E90043BDE8F08702B91F
:1072A000FFDEB2FA82F2002A4FD1CB1B4FEA174E13
:1072B0001FFA87F80121B3FBFEFC250C0EFB1C33E3
:1072C00045EA034508FB0CF3AB4207D97D190CF1E5
:1072D000FF3002D2AB4200F2E7808446ED1AA3B23F
:1072E000B5FBFEF00EFB105543EA054408FB00F821
:1072F000A04507D93C1900F1FF3302D2A04500F2A6
:10730000D7801846A4EB080440EA0C40C0E78B4243
:1073100008D9002E00F0AF800021C6E9000508461C
:10732000BDE8F087B3FA83F100294BD1AB4202D319
:10733000824200F2B780841A65EB030301209E4667
:10734000002EAAD0C6E9004EA7E7C2F1200C01FA30
:1073500002F3974020FA0CF04FEA174E21FA0CFC8A
:107360001843BCFBFEF1050C0EFB11CC1FFA87F88D
:1073700045EA0C4501FB08F3AB4204FA02F409D9D3
:107380007D1901F1FF3C80F08B80AB4240F2888098
:1073900002393D44EB1A85B2B3FBFEF00EFB10330D
:1073A00045EA034500FB08F3AB4207D97D1900F11C
:1073B000FF3C71D2AB426FD902383D44EB1A40EA30
:1073C000014178E7C1F1200C8B4022FA0CF71F43F2
:1073D00020FA0CF405FA01F34FEA174E25FA0CF5E2
:1073E0001C43230CB5FBFEF91FFA87F80EFB195559
:1073F00043EA054509FB08FAAA4502FA01F200FA38
:1074000001F308D97D1909F1FF3047D2AA4545D9C2
:10741000A9F102093D44A5EB0A05A4B2B5FBFEF0B3
:107420000EFB105544EA054400FB08F8A04507D9B7
:107430003C1900F1FF352DD2A0452BD902383C4430
:1074400040EA0940A4EB0804A0FB02894C45C6466B
:107450004D4619D316D05EB1B3EB0E0264EB0504B2
:1074600004FA0CFCCA404CEA0202CC40C6E90024F3
:107470000021BDE8F087314630460EE7AC46EDE628
:10748000184601E74345E6D2B8EB020E69EB070563
:107490000138E0E72846D3E760468FE78146BAE740
:1074A000614677E708464BE7ACF1020C3D4415E72F
:1074B00002383C4426E700BF03685A004CBF43F043
:1074C000004323F000431844704700BF2DE9F84300
:1074D00029B34F1E044615463E464FF0000808EB00
:1074E000060101EBD171491004EBC1094846FFF7D1
:1074F000E3FF0346C80008308F42204409D0AB4266
:1075000009D8FFF7D9FF0138A8420AD201F10108D2
:10751000E5E7AB4205D9884501D04E1EDFE74FF0C5
:1075200000094846BDE8F883012807D0022807D0A3
:10753000044B00280CBF18460020704702487047D3
:1075400002487047ED7B0008F17B0008F57B0008DE
:1075500030B5234B83B004468D1E3BB301A92846AA
:10756000AFF30080E8B101992A46FFF7AFFF01466B
:10757000B8B1FFF7A1FF4B68A064012B2BD0002B03
:1075800001F1040023DBFFF797FF0023C4E9130395
:107590000368002B10DBFFF78FFF2061002003B092
:1075A00030BD00230920236103B030BD0D490E48D2
:1075B000091AC9100191D7E7C3F30360FFF7B4FFBD
:1075C0000028206114BF0020092003B030BD012332
:1075D000C4E91303DCE7002323610520DFE700BFD4
:1075E00000000000E8420308384003080368DA0797
:1075F00010B5044606D49B0700F1480009D500F0F9
:107600004BFC2368590709D51A070ED5DB0613D59D
:1076100010BD00F039FC23685907F5D404F1D000FF
:1076200000F042FC23681A07F0D404F5A87000F0BB
:1076300043FC2368DB06EBD404F5E870BDE810409A
:1076400000F07EBC0346006800B11844704700BFDC
:1076500009207047704700BF70B504460E46316C74
:107660002046FFF775FF054688B9336C63613246E3
:1076700023692146012098470828F0D0072806D121
:107680002846316CFFF7E6FF301D00F0F1FB28F0D3
:1076900039FC00BF2DE9F0470D1D064614460FCDFD
:1076A000ADF5727D0DF10C0CACE80F000FCDACE820
:1076B0000F000FCDACE80F0095E80F0002ADF768A2
:1076C000D6F818808CE80F0000232B6021E02B6C8B
:1076D00073614FF4F07229467AA803F0FBF833691E
:1076E0007AAA314650469847889BCDE900582146F2
:1076F0006B648146334632460120B8470446E8B9F8
:107700004FF4F0727AA9284603F0E4F8B9F1080FB3
:107710001BD1296C3046FFF71BFF09345FFA84FA4E
:1077200081460028D3D0AB6B4AF01001CDE9005858
:1077300032466B6401203346B84708B14FF009095F
:1077400048460DF5727DBDE8F087B9F1070FF5D118
:107750002046296CFFF77EFF03A800F089FB00BFDD
:10776000406C7047F0B5CB6B0B640E1D0F460546A1
:107770000FCEF9B001AC0FC40FCE0FC40FCE0FC4A3
:1077800096E80F004FF0FF3684E80F00009606E001
:107790002B696A46294698470828044608D110995B
:1077A0002846FFF7D5FE0028F2D0092079B0F0BDB9
:1077B0006846FFF71BFF062CF7D139462846FFF72E
:1077C0004BFF00BF30B4DD6BC160826119461D64A0
:1077D000002230BC5EE700BF70B5C66843690B6429
:1077E000AEB903690A4604460D4601460220984791
:1077F000072805D008280FD129462046FFF72CFF7F
:107800003046296CFFF726FF281D00F031FB0122CE
:10781000FFF740FF28F076FB28F074FBC2681AB12E
:10782000CA6B0A64002235E79CE700BF704700BFBF
:10783000836801460BB1012018477047012912D017
:1078400009D873B90F2A0CD800EB82021846536886
:10785000009A136070470339012994BF0120022068
:107860007047022070470846704700BF10B584B0CB
:10787000002303AC0A4600941946FFF7DFFF039884
:1078800004B010BD012912D009D873B90F2A0CD841
:1078900000EB8200009A1268426018467047033974
:1078A000012994BF0120022070470220704708463A
:1078B000704700BF10B584B0002303AC039200945E
:1078C0000A461946FFF7DEFF04B010BDF0B5D36BD2
:1078D0001364151D8C4606460FCDADF50F7D17AC14
:1078E0000FC40FCD0FC40FCD0FC495E80F004FF09C
:1078F000FF3784E80F006546169710E0FFF7DAFFC0
:10790000294616A8B047034616AA6946082083B937
:10791000049B9847052804460CD0092809D02699CD
:107920006846FFF715FE03466A460C2116A8002B91
:10793000E4D0092416A8FFF759FE20460DF50F7D67
:10794000F0BD00BF2DE9F04FCC6C89B00D4654F866
:10795000041B0694174600F003081E46002B79D03E
:107960000B0CDAB209048DF81D30022304EB8204FB
:1079700005918DF81C302B6DB8F1020F08BFAC6B70
:1079800013F001030CD0384605A900F073FB18B9B9
:10799000082009B0BDE8F08F092009B0BDE8F08FDC
:1079A000D4F800A0BAF1000FEDD0019300F0080365
:1079B0000293022E4AD0B4F800A0B4F80290043426
:1079C000AA6C29F0010B0F2138469344FFF74EFFB4
:1079D000834539D82AF001025A44824294BF0020DC
:1079E00001204FEA490303F002030AF0010A43EAC7
:1079F0000A03012B49D0022B32D0002BCCD1B8F195
:107A0000000F02D0002840F0CD800434D4F800A04C
:107A1000BAF1000FCDD105A9384600F02BFB0028A4
:107A2000BAD1019B002BB3D00F213846FFF71EFFC0
:107A30000E2102463846FFF73DFF38466A4A0F21BD
:107A4000FFF738FF0720A8E70020CAE7D4F8049022
:107A50000834B5E7090203230591ADF81C308AE725
:107A6000236823F0004BB8F1000F45D128B1029AEA
:107A7000002A5CD0BBF1000F74D0002B00DA043474
:107A80000BF1010B04EB8B04C0E7B8F1000F19D127
:107A9000B0B1D4E90023991C4FEAD2723FF47CAF15
:107AA00005F158010133049100F09080201DFFF78B
:107AB000C9FD04AB0146284626F082FE00285BD1B2
:107AC0000834A3E70D213846D5F82090FFF7CEFE05
:107AD0008145F5D1AB6A9C42F2D12046FFF7ECFC20
:107AE0000F2102463846FFF7E5FE38462A460021B8
:107AF000FFF7E0FE072050E70D213846D5F820902B
:107B0000FFF7B4FE814501D02368B6E7AB6A9C421B
:107B1000FAD104220021C5E90B12A318C5F828B038
:107B20006B6323688B4259DB01230193A8E705F1BE
:107B30005803CDF80C8004F1040AB04691461E4665
:107B40000DE00496FFF77EFD04AB014600222846B7
:107B500026F036FE09F101090AF1040AE8B9D9450F
:107B60005046EED138460D21FFF780FE049B286277
:107B7000C5E90934062010E781460D213846FFF794
:107B800075FEB9F1020F286225D12B46049A43F8FD
:107B90002C2F6B62AC620620FFE646462368DDF8B8
:107BA0000C806AE72046FFF787FC04340246AC638A
:107BB0002846144626F062FE00283FF4EDAE384613
:107BC00022460F21FFF776FE0720E6E638460D2114
:107BD000FFF74CFE2862049B6B62DBE70BF10100B0
:107BE00004EB80007AE700BFC9EF02080023A9E692
:107BF0000123A7E60223A5E62DE9F0430646C3B01C
:107C000015461C46042900F2B980DFE801F09A53BA
:107C1000B7290300002C40F0B180102A00F2AE809A
:107C20000368D80600F1F38020AF384600F092F9DF
:107C3000B06B0023012404FA03F22A42014604D067
:107C400051F8042B47F8232008460133042BF2D1C6
:107C5000B063384600F074F9002043B0BDE8F0830B
:107C6000032C40F08B8094B204EB1243102B4FEAAC
:107C7000124500F2838003681F0700F1D08020AF17
:107C8000384600F03BF907EBC501B56B54B10B4624
:107C9000E81A01EBC401E4001A5843F8042B8B42A4
:107CA000FAD125443846B56300F006F9002043B008
:107CB000BDE8F083012C4FEA124895B25AD0052C4A
:107CC0005CD108EB0509B9F1200F57D8B8F10F0FB7
:107CD00077D9A946002D40F08880B36B6DB320AFF3
:107CE0004FF0000907EBC807043F03EBC50553F845
:107CF000041B47F8041FAB42F9D1B9F1000F0FD0B4
:107D00006F464146102938BF102107EBC101843965
:107D100003EBC90553F8040B41F8040FAB42F9D14A
:107D2000012C00F08480B8F10F0FB56345D9B9F18B
:107D3000000F02D0684600F0B7F8002043B0BDE85D
:107D4000F083DCB9876B2346012094B206F1040C62
:107D500000FA03F22242394604D051F8042B4CF8C1
:107D600023200F460133102BF2D115F40050E4D13B
:107D7000B76304E008EB0503102B03D9022043B0DE
:107D8000BDE8F083B8F10F0FF8D83368DA0706D5ED
:107D9000304623F0030340F8483B00F079F820AF69
:107DA000384600F075F8B36B002D99D11D460435A7
:107DB000B563384600F068F8BFE720A800F06CF81B
:107DC000B5E7B9F1100F40D9A9F110093368D90707
:107DD00008D523F00103304643F0020340F8483B46
:107DE00000F05EF8B9F1000F32D033685A0720D4A2
:107DF000B8F10F0F25D96F463846C8F1100500F0CD
:107E000057F8002DB36B7FF77CAF20AF6AE723F004
:107E10001003336006F5E87000F09CF804E723F0E7
:107E20000803036000F5A87000F068F827E720AFAA
:107E3000BDE7304623F0040340F8D03B00F038F8AB
:107E4000D6E720A800F02CF8D5E74FF00009BDE7F1
:107E5000B8F10F0F3FF641AF20AF384600F020F8E1
:107E6000B36B002D7FF43CAF384600F015F864E7A3
:107E700000F1340191E838009C46A6464CF8045DB8
:107E800090E8FF0FE54600BD90EC210B704700BF66
:107E900080EC210B704700BF90EC200B704700BFB7
:107EA00080EC200B704700BFD0EC200B704700BF68
:107EB000C0EC200B704700BFF0EC0201F0EC0211A7
:107EC000F0EC0221F0EC0231F0EC0241F0EC025156
:107ED000F0EC0261F0EC0271F0EC0281F0EC029146
:107EE000F0EC02A1F0EC02B1F0EC02C1F0EC02D136
:107EF000F0EC02E1F0EC02F1704700BFE0EC0201AF
:107F0000E0EC0211E0EC0221E0EC0231E0EC024195
:107F1000E0EC0251E0EC0261E0EC0271E0EC028185
:107F2000E0EC0291E0EC02A1E0EC02B1E0EC02C175
:107F3000E0EC02D1E0EC02E1E0EC02F1704700BFBE
:107F4000B0FC0181B0FC0191B0FC01A1B0FC01B119
:107F5000704700BFA0FC0181A0FC0191A0FC01A121
:107F6000A0FC01B1704700BFEC4600B52DE9005000
:107F70002DE9FF1F4FF000032DE90C0001A9FFF7C9
:107F8000F1FBDDF840E012B0704700BFEC4600B5F1
:107F90002DE900502DE9FF1F4FF000032DE90C00E3
:107FA00001A9FFF719FCDDF840E012B0704700BFEF
:107FB000EC4600B52DE900502DE9FF1F4FF00003FE
:107FC0002DE90C0001A9FFF729FCDDF840E012B013
:107FD000704700BFEC4600B52DE900502DE9FF1FAA
:107FE0004FF000032DE90C0001ABFFF7EBFBDDF8D0
:107FF00040E012B0704700BFEC4600B52DE90050DC
:108000002DE9FF1F4FF000032DE90C0001AAFFF737
:108010005DFCDDF840E012B0704700BF027A7AB92B
:10802000437AA3B14268013B10B443721368032141
:10803000141D01721A024460026010BC180E7047D1
:108040000368013A02721A020260180E7047B020EB
:10805000704700BF00B585B003AA002300921946FF
:108060000C22FFF7EBFB039805B05DF804FB00BFA3
:10807000F0E700BF2DE9F043054685B00E464FF00E
:1080800000083046FFF7CAFFB028044600F0B2806F
:10809000070620D500F0F003802B4DD0902B36D072
:1080A000A02B60D0B02B74D0C02B00F08B8000F0E0
:1080B000F803D02B0BD100F00702013242F400226A
:1080C000052301212846FFF797FD0028D9D0092074
:1080D00005B0BDE8F0830DF10C09002319468700B7
:1080E000CDF800900D222846FFF7A8FBFFB2039BB6
:1080F000CDF80090043760064CBFDF1BFF1800234B
:1081000019460D2228460397FFF7BCFBB9E700F09C
:108110000D030D2BDBD003AF002300F00F02194637
:1081200000972846FFF78AFB0023009719460D2287
:108130002846FFF7A7FBA4E73046FFF76FFF2402AE
:108140002043B0F5004FC2D004010023A2B219466B
:108150002846FFF751FD0028B9D114F4004F18BF8D
:108160004FF001088DE7C24302F007034FF47F622E
:108170001A41010702F47F624FF0000348BF42F446
:10818000804219462846FFF737FD00283FF479AFB3
:108190009DE7B12833D0B22800F08B80B32839D0C6
:1081A00000F0FC03B42B92D000F00702013201234F
:1081B00042F4002219462846FFF71EFD00283FF42E
:1081C00060AF84E7C62842D0C7284CD000F0F8033F
:1081D000C02B5BD0C82860D0C9287FF478AF304668
:1081E000FFF71CFF020300F00F0002F470220130C1
:1081F000024365E7B8F1000F18D0002068E7304669
:10820000FFF70CFF024600283FF461AF10F0F003C7
:10821000D0D05CE73046FFF701FF010300F00F000C
:1082200001F47021421C01230A43C3E703AC434617
:108230000E22414600942846FFF700FB0094284692
:1082400043460F224146FFF71DFB404640E73046BC
:10825000FFF7E4FE010300F00F0001F47021421C5F
:1082600003230A43A6E73046FFF7D8FE024600285C
:108270003FF42DAF10F0F0037FF429AF042128461E
:10828000FFF7BAFC00283FF4FCAE20E700F00F0235
:108290000132032342F420228CE73046FFF7BEFE72
:1082A00000F0F00200F00F031032013343EA023213
:1082B00006E700230DF10C090D221946CDF80090B8
:1082C0002846FFF7BBFA3046FFF7A8FE02064FF03C
:1082D00002070CD5039B00F07F00B84003443046F2
:1082E0000393FFF79BFE030607F10707F2D4039BF6
:1082F000CDF8009000F07F0403F50172BC4000232C
:10830000144419460D2228460394FFF7BBFAB8E639
:1083100010B5C26C84B0536803248DF80C401B0266
:1083200002F108040846D279019301A902948DF85C
:108330000D20FFF79FFE04B010BD00BF08B5FFF78A
:1083400097FE806C08BD00BF08B5FFF791FEC06CBA
:10835000C379023300EB830008BD00BF704700BF44
:10836000034B4FF4806200201A8000F08FBB00BFE7
:10837000CC0D002008B5092023F08FFF60B9012142
:10838000012023F085FF054B4FF400621A80002086
:10839000BDE8084000F07ABB0021F1E7CC0D0020D9
:1083A0002DE9F84F344A35493548DFF8E4A023F089
:1083B00021FF3449324823F01DFF3349304823F070
:1083C00019FF642023F018FD4FF4FA6023F014FD28
:1083D000294A2A492A4823F00DFF2C49284823F02E
:1083E00009FF2949264823F005FF642023F004FDF6
:1083F000274801F021FB23F0E4FD4FF0000B054678
:1084000041F288384FF00009504601F05AFB04460B
:1084100000BB23F0D6FD461B6BEB4B07B04579EB59
:10842000070312DA144A1549154823F0E3FE1949E7
:10843000134823F0DFFE1449114823F0DBFE6420CB
:1084400023F0DAFC2046BDE8F88F4FF4FA7023F0F1
:10845000D3FCD9E7084A0949094823F0CBFE0E4965
:10846000074823F0C7FE0849054823F0C3FE6420EF
:1084700023F0C2FC0120E6E72401030829010308D8
:10848000B85B00202F0103083205030890010308A0
:10849000D00D0020A0010308C60103082DE9F04714
:1084A0003D4801F097FA23F08CFD4FF0000A054695
:1084B00042F210784FF00009374801F002FB044601
:1084C00000BB23F07EFD461B6AEB4A07B04579EB03
:1084D000070312DA3149324A324823F08BFE32491F
:1084E000304823F087FE31492E4823F083FE642074
:1084F00023F082FC2046BDE8F0874FF4FA7023F0A9
:108500007BFCD9E7264A2549264823F073FE2849F3
:10851000244823F06FFE2549224823F06BFE642097
:1085200023F06AFC1C48042101F0E9FAFFF738FF48
:10853000044630B919491A4A1A4823F05BFE1D490E
:10854000CEE70121144801F0C3FA134801F0EDFA17
:10855000134A1249134823F04DFE1749114823F0DE
:1085600049FE12490F4823F045FE642023F044FCE5
:1085700000210F2023F075FE0021092023F071FE59
:108580000E4903220F2023F04FFE0D49022209203D
:1085900023F04AFEAEE700BFD00D002029010308FA
:1085A00024010308B85B0020D30103083205030847
:1085B000EB01030825020308450203086183000854
:1085C0007583000838B51D4A1D4904461D4823F02F
:1085D00011FE1D491B4823F00DFE1C49194823F0CC
:1085E00009FE642023F008FC1948ACB101F0B2FA8E
:1085F000012804460ED1164801F097FA144801F0FC
:10860000B1FA012804D1124801F08FFA0234E4B221
:10861000204638BD0024F1E701F04CFA0D4D044628
:1086200018B101232B700424F2E7094801F07DFA08
:108630002B78002B18BF0524EAE700BF24010308AC
:1086400029010308B85B0020600203083205030813
:10865000D00D0020A50D00202DE9F7433B4A3C49F1
:1086600080463C4823F0C6FD3B493A4823F0C2FD12
:108670003A49384823F0BEFD642023F0BDFB38485A
:1086800001F0AEFA0746364801F0B8FA0021064676
:10869000334801F0C1FA00210546314801F0CEFA15
:1086A0000446B8F1000F16D001222B212D4801F00D
:1086B000F9F82D492846FEF78DFB2C210246294862
:1086C00001F064F928492046FEF784FB2D2102467B
:1086D000244801F05BF91D4A1D491E4823F08AFD1C
:1086E0003846FDF719FF804628468946FDF714FFF6
:1086F0004B464246CDE900011C49164823F07AFD5D
:108700001649144823F076FD642023F075FB0F4AC8
:108710000F49104823F06EFD3046FDF7FDFE06467A
:1087200020460F46FDF7F8FE3246CDE900013B46F4
:108730000F49084823F05EFD0849064823F05AFD1A
:10874000642003B0BDE8F04323F056BB24010308C6
:1087500029010308B85B00206C02030832050308F6
:10876000D00D0020C40D0020000020417802030835
:108770008B02030808B50E490E4823F0FBFD0D4996
:108780000D4801F0DDFB88B10C4A0D490D4823F07E
:1087900031FD0D490B4823F02DFD0C49094823F00C
:1087A00029FD642023F028FB002008BD0120FCE700
:1087B000A08601004C5B0020A80D00209F0203084A
:1087C00029010308B85B0020A3020308320503084F
:1087D000F7B53E4A3E493F483F4C23F00BFD3F4929
:1087E0003C4823F007FD3E493A4823F003FD64204E
:1087F00023F002FB204601F0D1FB637A002B51D11C
:10880000204601F079FA0646204601F051FA2F4A37
:108810002F4905462F4823F0EDFC3046FDF77CFE3E
:10882000304B0022FDF7D0FEFEF77EF900B2FEF7D6
:108830007DFAFDF771FE2B4B0022FDF7EFFF064698
:108840000F4628462946FEF7BDF9FEF789FC80B29F
:10885000FEF768FAFDF760FE234B0022FDF7B4FE39
:108860003B463246CDE9000120491A4823F0C2FCBC
:108870001B49184823F0BEFC642023F0BDFA2046B3
:1088800001F016FA02210246194801F08DF820463F
:1088900001F032FA02461648032103B0BDE8F04069
:1088A00001F07BB8094A0A490A4823F0A3FC1149A0
:1088B000084823F09FFC0A49064823F09BFC6420EB
:1088C00003B0BDE8F04023F097BA00BF9F02030851
:1088D00029010308B85B0020A80D0020BE02030890
:1088E00032050308000024400000E03FCC020308EA
:1088F000C40D0020DC020308014801F0CDB900BF1F
:10890000A80D0020F7B50446164A17491748184F16
:10891000164E23F06FFC94F90C300193B4F90A3031
:108920002278144900931148637823F063FC1249BC
:108930000E4823F05FFC642023F05EFA0025237AC2
:10894000AB4207DD636839465A5D304623F052FC7E
:108950000135F4E70949054803B0BDE8F04023F0CC
:1089600012BC00BFF102030829010308B85B002014
:1089700019030308F7020308320503083105030849
:1089800037B50446002843D0304800F0D3FE0546F2
:108990002E4800F0D1FE2E4B1B7801932D4B1B78F7
:1089A00000932D4B024629461B782C4823F020FBD0
:1089B0002B4A2C49002843D02B4823F01BFC2B4981
:1089C00029482B4D23F016FC2A49274823F012FC96
:1089D000642023F011FA2B780133DBB2042B2B70C7
:1089E00016D1254A1F49204823F004FC23491E487C
:1089F00023F000FC1F491C4823F0FCFB642023F0FB
:108A0000FBF9164823F0E3FA1D4B187000232B7076
:108A1000194A1449144823F0EDFB2246194912481B
:108A200023F0E8FB1349104823F0E4FB642023F013
:108A3000E3F90021012003B0BDE8304023F028BC59
:108A4000094823F0D7FB1049BAE700BFC40D002046
:108A5000470000200500002046000020505C002058
:108A60001E03030829010308B85B00202203030842
:108A7000BC0D002032050308350303083B0303083F
:108A8000CF0D0020530303082B03030873B5A4483C
:108A9000A44D00F04CFEA44823F081FD01210246C4
:108AA0009F4800F088FF2B7883B100222B219C483F
:108AB00000F0F8FE9D4B9A481A782E2100F0F2FE45
:108AC0009B4B97481A782F2100F0ECFE994E338883
:108AD0009BB2B3F5006F40F0BF80974A9749984822
:108AE00023F088FB9749964823F084FB96499448E5
:108AF00023F080FB0024642023F07EF9204634809C
:108B0000FFF760FD04280AD0052828D001232B7028
:108B10008A49894A8A4823F06DFB8C49B9E0864A24
:108B20008649874823F066FB8949854823F062FB24
:108B30008549834823F05EFB642023F05DF92046DD
:108B4000FFF78AFD01222B2175482C7000F0AAFE48
:108B50008048214602B0BDE8704023F05DBD764AF2
:108B60007649774823F046FB7B49754823F042FB62
:108B70007549734823F03EFB642023F03DF9012042
:108B8000FFF76AFD694B73481C70694B01211C702B
:108B90004EF660222346297023F034FD6F4A6D485B
:108BA00012682146234623F02DFD2146204623F05E
:108BB0006FFB6B4B1B780BB1FFF70AFE5E4A5F49F8
:108BC0005F4823F017FB564800F0B4FD65490246A4
:108BD0005B4823F00FFB5C49594823F00BFB6420F2
:108BE00023F00AF9604823F096FA022817D8524A6F
:108BF0005249534823F0FEFA5B4823F08CFA5B4954
:108C000002464F4823F0F6FA4F494D4823F0F2FA56
:108C1000642023F0F1F85448032123F07EFA404801
:108C200000F088FD04463E4800F086FD504B1B785E
:108C30000193504B1B7800934F4B024621461B7803
:108C40004E4823F0D5F93C4A3C49002862D03C48C4
:108C500023F0D0FA4A491CE033889BB2B3F5806F09
:108C600047D1002501203580FFF7ACFC02280446DF
:108C70001CD0032824D0012832D10146284623F0F5
:108C800007FB2B4B2D492C4A2D481C7023F0B2FAC0
:108C90003C492B4823F0AEFA2B49294823F0AAFA85
:108CA000642002B0BDE8704023F0A6B81F4B2349F2
:108CB000234801221A70204A23F09CFA3249E8E73F
:108CC0000121284623F0E4FA194A1C491C480123D3
:108CD0001370164A1370184A23F08CFA2B49D8E700
:108CE0002946012023F0D4FA2946284623F0D0FA59
:108CF0000EE7114A1149124823F07CFA2449104822
:108D000023F078FA10490E4823F074FA642023F017
:108D100073F84EE70A4823F06DFA1E49B9E700BF21
:108D2000C40D002004000020495C0020A60D002096
:108D3000A40D0020CC0D00201E0303082901030808
:108D4000B85B0020590303083205030898030308A1
:108D50006A0303084D5C002082030308C00D002055
:108D6000CE0D0020170403085F5C002025040308D3
:108D7000470000200500002046000020505C002035
:108D800022030308B0030308CB030308E503030829
:108D90000A0403082B03030810B5044600F0C0FCC6
:108DA000204610BD10B50446C0B1214823F00FF98C
:108DB000204B187000283AD11F49204A204823F040
:108DC00019FA20491E4823F015FA1F491C4823F0C0
:108DD00011FABDE81040642023F00EB803211B48AF
:108DE00023F09BF921461A4823F085F921460120FA
:108DF00023F04EFA174B1A6822B117482346214632
:108E000023F000FC002342F210720121124823F0EB
:108E1000F9FB124A08490A4823F0ECF90B4823F001
:108E20007AF90F490246064823F0E4F9CDE710BD70
:108E3000505C0020CF0D00202901030842040308E4
:108E4000B85B002047040308320503085F5C00207C
:108E50005C5C0020C00D00204D5C00201E03030858
:108E60005004030870B58149814823F0E6F8814930
:108E70007F4823F0F2F880497D4823F0E6F87F48E8
:108E8000012123F012FA78B97D4A7E497E4823F009
:108E9000B1F97E497C4823F0ADF97D497A4823F049
:108EA000A9F9642022F0A8FF0121002023F0D9F9BC
:108EB0000121002023F0ECF90121084623F0D1F92B
:108EC0000121084623F0E4F90121082023F0C9F923
:108ED0000021082023F0DCF9032306224FF4E131BE
:108EE00069486C4E6C4D23F0CDFB41F2883022F086
:108EF00083FF634A6349644823F07CF96749624809
:108F000023F078F96249604823F074F9642022F074
:108F100073FFFFF7C3FA5A4A5A4904465A4823F0E6
:108F200069F9002C14BF32462A465D4956485D4C0B
:108F300023F060F95649544823F05CF9642022F08C
:108F40005BFF4F4A4F49504823F054F956494E4869
:108F500023F050F94E494C4823F04CF9642022F09C
:108F60004BFFFFF707FC464A46492070464823F06E
:108F700041F922784A494448002A14BF32462A4619
:108F800023F038F94249404823F034F9642022F0B4
:108F900033FF3B4A3B493C4823F02CF9434A4449C0
:108FA000394823F027F93A49374823F023F9642058
:108FB00022F022FF324A3349334823F01BF93D495E
:108FC000314823F017F932492F4823F013F9642070
:108FD00022F012FF0021084623F05AF900F0C8FAE7
:108FE000022000F06FFB344A34480123002123F0B3
:108FF000FFFA314A31480023012123F0F9FA3048C1
:1090000023F069F82F4B1E4A18701E491E4823F0A2
:10901000F1F82B4823F05FF82B4B2C4A2C49002801
:1090200018BF1A46184823F0E5F81949164823F0E6
:10903000E1F8642022F0E0FE0D4822F0C8FF254B45
:10904000187088B90E4A0F490F4823F0D3F8224907
:109050000D4823F0CFF80E490B4823F0CBF8BDE8BC
:109060007040642022F0C8BE70BD00BF05890008B2
:10907000505C002081890008A58D0008095C002053
:109080007D04030829010308B85B0020810403085C
:109090003205030871040308EA0203089E0403086A
:1090A000B2040308CE0D0020BA0403080600002015
:1090B000CD040308E10403088D8A00084D5C0020FC
:1090C000585C0020050000201C14030879040308E4
:1090D00004050308CF0D00201C050308014823F0F8
:1090E000A3BA00BF4E5C002010B5064CFF212046FD
:1090F00000F00AFB2046044A0449BDE8104001F094
:10910000A1BB00BFC40D002000000020998D000805
:1091100030B599B01446B7490EA822F00AFF0023D3
:10912000CDE91433CDE91633636E012B40F0F7819E
:109130002068B149FDF724F80446002840F0EF818B
:10914000AE49AF4823F054F8AE4911A823F021FAF4
:1091500011A90EA822F0FFFE11A822F0A4FE0EA86D
:1091600022F023FF0E9AA849A54823F043F8A74907
:1091700011A823F008FA119AA549A14823F03AF85A
:1091800011A822F090FEA34BA3491A689C484FF403
:109190007A73B2FBF3F223F02DF8A04822F0DAFF45
:1091A0009F4BA04953F820200546954823F022F80C
:1091B000012D40F063819C4822F09BFF9B4B9C4A11
:1091C0009C49002808BF1A468D4823F013F89A4896
:1091D00022F0B4FF99490246894823F00BF89848D9
:1091E00022F080FF00287ED09649854823F000F8C1
:1091F000082214A9944822F05CFF9DF8573005938B
:109200009DF8563004939DF8553003939DF85430E3
:1092100002939DF8533001939DF852309DF85020F1
:109220008A49009376489DF8513022F0E3FF0822E6
:1092300014A9874822F019FF9DF8573005939DF82F
:10924000563004939DF8553003939DF854300293A3
:109250009DF8533001939DF852309DF850207D4980
:10926000009367489DF8513022F0C4FF102214A9E2
:10927000794822F003FF9DF85F300D939DF85E3032
:109280000C939DF85D300B939DF85C300A939DF82C
:109290005B3009939DF85A3008939DF85930079335
:1092A0009DF8583006939DF8573005939DF8563039
:1092B00004939DF8553003939DF8543002939DF824
:1092C000533001939DF8523000939DF850209DF843
:1092D000513062494A4822F08DFF0EA822F0E3FD8A
:1092E000204619B030BD5E49454822F081FF14A9DF
:1092F00010225C4822F0CBFE9DF85F300D939DF864
:109300005E300C939DF85D300B939DF85C300A93B2
:109310009DF85B3009939DF85A3008939DF85930B9
:1093200007939DF8583006939DF8573005939DF8A4
:10933000563004939DF8553003939DF854300293B2
:109340009DF8533001939DF852309DF850200093C2
:1093500045499DF851302A4822F04CFF14A91022AB
:10936000424822F0AFFE9DF85F300D939DF85E30CD
:109370000C939DF85D300B939DF85C300A939DF83B
:109380005B3009939DF85A3008939DF85930079344
:109390009DF8583006939DF8573005939DF8563048
:1093A00004939DF8553003939DF8543002939DF833
:1093B000533001939DF852309DF8502000932C4972
:1093C0009DF851300E4822F015FF14A904222948B7
:1093D00022F066FE9DF8533001939DF852300093C1
:1093E0009DF850209DF851302349054822F002FF96
:1093F00073E700BF33050308EC3A03083F05030891
:10940000B85B0020305C00204E0503080C5C002097
:109410005B050308C00D002069050308735C00208C
:10942000480000207B0503085B5C0020340503082E
:109430005D1303088D050308715C00209A0503087D
:109440005A5C0020A7050308555C0020B1050308FD
:10945000515C0020DD050308525C0020090603086A
:1094600055060308535C00205E060308575C002085
:10947000AB060308545C0020F7060308002D34D126
:109480002849294822F0B4FE284822F067FE2849DE
:109490000246254822F0AEFE264822F061FE26490B
:1094A0000246214822F0A6FE244822F05BFE244911
:1094B00002461D4822F09EFE224822F055FE224917
:1094C0000246194822F096FE204822F04FFE20491D
:1094D0000246154822F08EFE1E4822F049FE1E4923
:1094E0000246114822F086FEF7E61C490E4822F09B
:1094F0007FFE0E4822F032FE0D4902460A4822F055
:1095000079FE174822F036FE16490246064822F038
:1095100071FE154822F030FE14490246E1E70224AC
:10952000DBE600BF68270308B85B0020745C0020FE
:1095300014070308755C002025070308765C0020EB
:109540002F070308775C002039070308785C0020A8
:1095500043070308795C00205A0703086A070308D9
:109560007C5C0020730703087D5C002082070308F1
:1095700037B50B4B0B4C00930B4B0C4A032519468C
:109580000195204623F013F8094B0093094B0A4A32
:1095900001951946204623F00AF803B030BD00BFFC
:1095A000F59500084A5C0020920703089B07030812
:1095B00011910008E7070308EE0703081FB50146ED
:1095C00002294FF00000CDE9010003900AD1074BBA
:1095D00007481B680093AA238DF804306A460523C8
:1095E00022F0FCFF05B05DF804FB00BFC00D0020B9
:1095F0004B5C0020536E012B70B50E4621D11568CF
:1096000027492846FCF7BCFD0446E0B12846FCF794
:10961000C1FD0024844228D02B5D303B092B22D988
:10962000204A2149214822F0E5FD21491F482246D0
:1096300022F0E0FD1F491D4822F0DCFD642022F0ED
:10964000DBFB02240DE03146184822F0B2FD1A4B34
:109650001A491A6815484FF47A73B2FBF3F222F0F4
:10966000C9FD204670BD0134D4E70A2200212846F6
:1096700001F0D6FE104C4FF47A734343002110489A
:10968000236022F0C9FF226822B100230C4819464A
:1096900022F0B8FF0220FFF791FF0024E1E700BFAE
:1096A000EC3A03080D08030829010308B85B002001
:1096B0001408030832050308C00D0020050803083C
:1096C0004D5C002030B5022885B0054602D0002050
:1096D00005B030BD0146052309486A4622F074FFF3
:1096E0000028F4D09DF80430AA2B064B05D00024A6
:1096F00028461C60FFF762FFE9E7009A1A60E7E777
:109700004B5C0020C00D002038B5044600250846FB
:109710002171A57101F0CEF865712060204638BD39
:1097200010B50446006801F0CDF8204610BD0023B6
:109730004371704740797047006870478E294ED852
:10974000702903D8032943D80120704771391D2996
:1097500045D801A353F821F049970008DF97000886
:109760004997000849970008499700084997000859
:10977000DF9700084997000849970008DF9700081D
:10978000DF970008DF97000849970008DF97000877
:10979000DF97000849970008DF97000849970008FD
:1097A0004997000849970008499700084997000819
:1097B0004997000849970008DF970008DF970008DD
:1097C000DF970008DF970008DF9700084997000837
:1097D000A1F1640004288CBF002001207047002004
:1097E000704700BF882918D8702906D803290FD8D8
:1097F000012994BF00200120704771390123C9B2AB
:1098000003FA01F1064B194214BF012000207047F2
:10981000A1F167035842584170470020704700BFCC
:109820000101A000F8B504460D461E46FFF786FF6D
:1098300010B90223A371F8BD8E2D98BF174B607924
:1098400098BF595D94F804C094BF154B002100EBFC
:10985000010707F1010794BF33F815300B46674540
:1098600003DB0123A3710020E5E773432668471C4F
:109870006771325462792068561C667185540022E3
:1098800001326079D5B28D42084404D82568801A27
:109890002B541B0AF4E7C0B26071CCE72F08030811
:1098A000BE08030808B513460A466621FFF7BAFF4B
:1098B00008BD00002DE9F84F04460E4690461D46AF
:1098C000FFF73CFF18B90223A371BDE8F88F8E2E75
:1098D00098BF2C4B94F805909CBF9F5D2A4B227932
:1098E00094BF33F816B0002709EB070303F1010317
:1098F00088BFBB46934203DB0123A3710020E4E74A
:1099000000212846FDF704FC0021B0F1000A28469A
:1099100018BF4FF0010AFDF7FBFB08B105F1004548
:109920005846FDF7FFF92946FDF754FAFDF718FCF4
:10993000314605462046FFF755FF40B1BAF1000F0A
:1099400005D0FA0001239340581E05405D1B236893
:1099500009F10102627103F8098063792268591CD8
:109960006171D654002201326379D1B2B9423B44CD
:1099700004D821689B1ACD542D0AF4E7D8B260713F
:10998000A3E700BF2F080308BE08030808B5134665
:109990000A460221FFF78EFF08BD08B513460A46A6
:1099A0006721FFF787FF08BD08B513460A466821FF
:1099B000FFF780FF08BD08B513460A467421FFF77C
:1099C00079FF08BD0022C0E90022C0E9022202742A
:1099D00070470000014822F0B9BC00BF4C5B00207A
:1099E0000148FFF7EFBF00BFD00D0020F8B5114CC4
:1099F0000F462046552116461D4622F0EBFC3946FF
:109A0000204622F08BFC0A2022F0F6F9314620464F
:109A100022F084FC0A2022F0EFF92946204622F0A9
:109A20007DFC0A2022F0E8F920460121BDE8F8403B
:109A300022F0DCBC4C5B0020022303221021FFF744
:109A4000D5BF000070B5164C0E4615465521204670
:109A500022F0C0FC3146204622F060FC0A2022F0B1
:109A6000CBF92946204622F059FC0A2022F0C4F9FD
:109A70000021204622F0BAFC10F0FF0FE6D1084882
:109A8000074C0122552122F09FFC204622F026FCA3
:109A90000028FADD024822F02BFCC0B270BD00BFE6
:109AA0004C5B002008B500221021FFF7CBFF00F02F
:109AB000070008BD08B5FFF7F5FF431E584258419F
:109AC00008BD08B5FFF7EEFFB0FA80F0400908BD09
:109AD000012970B505460C4610D804221021FFF765
:109AE000B1FF031144EA4303DB00284603F0F80307
:109AF000BDE8704004221021FFF778BF70BD042933
:109B000070B505460C460FD804221021FFF79AFFC6
:109B100000F00F0343EA04132846DBB2BDE87040AF
:109B200004221021FFF762BF70BD10B50222044667
:109B30001021FFF787FF0023237410BD10B5022208
:109B400010210446FFF77EFF00F00303207C18433A
:109B5000207410BD10B50446FFF7F0FF207CC0F361
:109B6000400010BD10B50446FFF7E8FF207C00F070
:109B7000010010BD70B5194C0E4615465521204602
:109B800022F028FC3146204622F0C8FB0A2022F0B1
:109B900033F92946204622F0C1FB0A2022F02CF995
:109BA0000021204622F022FC10F0FF0FE6D10B48E6
:109BB0000A4C0222552122F007FC204622F08EFB9F
:109BC0000128FADD054822F093FB0446034822F001
:109BD0008FFBC3B243EA042080B270BD4C5B00200F
:109BE00008B500222021FFF7C5FFFDF79BF80249C9
:109BF000FDF7A4F908BD00BF00007A4408B50222B1
:109C00002021FFF7B7FFFDF78DF80249FDF796F920
:109C100008BD00BF00007A44042908B50AD83031D5
:109C2000C9B20822FFF7A6FFFDF77CF80249FDF74D
:109C300085F908BD0020FCE700007A44042908B536
:109C40000AD83031C9B20A22FFF794FFFDF76AF84B
:109C50000249FDF773F908BD0020FCE700007A44D3
:109C60000368C9B21B68184738B504460D4600683A
:109C7000702122F0AFFB290A2068FFF7F1FFE9B25B
:109C80002068FFF7EDFF2068012122F0AFFBC0B292
:109C9000003818BF012038BD044A42600122027218
:109CA000002242810273C28102617047245C00017C
:109CB00008B5C089FDF736F80349FDF73FF90349B8
:109CC000FDF788F808BD00BF00FF7F470000C842CD
:109CD00008B5FDF727F80549FDF730F90449FDF708
:109CE00079F80449FCF76CFF08BD00BF00FF7F470F
:109CF00000002F4300003442008AFFF7E9BF70479D
:109D000010B50C46417281792046FFF7F8FF2046D6
:109D100010BD38B50D46002141810173C18101613B
:109D2000457281792846FFF7EAFF284638BD0000D2
:109D300038B501230446037201B1C3714BF2980197
:109D40002046FFF791FF044A60720546A179E1239E
:109D5000FFF7D5FF284638BDDC09030838B5C379BD
:109D60000021054681715BB901232B720024204636
:109D7000064AA9796C724E23FFF7C1FF204638BD11
:109D8000FFF7D6FF04460028EED0F0E7DC09030811
:109D900070B50E4643F217510546FFF765FF0446BE
:109DA00000B928720EB10023EB71F02022F039F8CF
:109DB0002046044AA9796C72F123FFF7A0FF2046E0
:109DC00070BD00BFDC09030838B501238371037A35
:109DD000054653B900242C722046074AA9796C72B3
:109DE0003F23FFF78CFF204638BD0021FFF7D0FF4F
:109DF00004460028EED0EFE7DC090308CBB26FEA97
:109E0000112110B5C9B2082411F0800F4FEA4101A9
:109E100001D081F03101013C14F0FF04C9B2F3D14B
:109E20004B40082413F0800F4FEA430101D081F02A
:109E30003101013C14F0FF04CBB2F3D19A4218BFB8
:109E40000224817914BF44724472054A204614BF2B
:109E50004FF4D3734FF4D473FFF751FF204610BD76
:109E6000DC0903082DE9F0410446FFF7ADFF014688
:109E700030B12046314ABDE8F041A923FFF749BF80
:109E80002046FFF785FF054630B16072AF232B4AAD
:109E9000A179FFF734FF19E04EF6C8712046FFF7AD
:109EA000E3FE0546074610B16072B523EFE7206870
:109EB0000322702122F085FA0328054609D01F4AA3
:109EC000BB2301212046FFF71BFF01252846BDE8E3
:109ED000F081206803685B699847804620680368C2
:109EE0005B6998470646206803685B699847F1B24A
:109EF00041EA082189B2C2B2618227732046FFF786
:109F00007DFF08B901232373638A23F4F8631B05DB
:109F10001B0D40F60702934203D003206072CE234C
:109F2000B5E72046FFF71AFFA1796072054610B128
:109F3000D423024AADE7D723FBE700BFDC090308BF
:109F400038B501600546FFF73FFF044638B1687237
:109F50008123114AA979FFF7D2FE204638BD014678
:109F60002846FFF715FF044610B168728723F0E713
:109F70002846FFF777FF044610B168728D23E8E7A3
:109F80002846FFF7EBFEA9796872044610B19323C7
:109F9000014AE0E79623FBE7DC0903082DE9F047D7
:109FA0000446FFF711FF014638B14FF49473604A3D
:109FB0002046BDE8F047FFF7ACBEA1882046FFF77A
:109FC00053FE014610B140F23113F0E7A38846F288
:109FD0005842934208D011D844F2DE42934203D053
:109FE00045F6244293420CD120680622702122F0CB
:109FF000E8F906280AD040F2491304E047F6A242E5
:10A00000F0E74FF4A1734A4A0121D1E7A38846F251
:10A010009C0293421FD012D845F6E00293423CD0F6
:10A020000AD844F21A02934237D044F2DE429342F5
:10A0300033D040F26B13E6E745F62442F7E747F6E4
:10A040006602934207D047F6A242934203D046F2FB
:10A0500058429342EDD1206803685B6998475FFAE4
:10A0600080FA206803685B699847C7B22068036874
:10A070005B6998475FFA80F9206803685B699847D5
:10A080005FFA80F8206803685B699847C5B220686A
:10A0900003685B699847C6B220E0206803685B6983
:10A0A00098475FFA80F8206803685B699847C5B2F3
:10A0B000206803685B699847C6B2206803685B69DB
:10A0C00098475FFA80FA206803685B699847C7B2CF
:10A0D000206803685B6998475FFA80F945EA0821C0
:10A0E00047EA0A270023E18127826381324620461E
:10A0F000FFF784FE08B90123A372218A4A4620464D
:10A10000FFF77CFE08B90123E3722046FFF726FE25
:10A11000A1796072054638B140F28513044AFFF711
:10A12000EEFD2846BDE8F0874FF4C473F6E700BFA4
:10A13000DC09030802F068BD02F06BBD7047000047
:10A1400070B5002386B0CDE904334FF0B0420F4D17
:10A15000D16C41F00201D164D26C039302F002028F
:10A160004FF48056009201A92846CDE90163009A78
:10A170000DF08AFA314628460DF0A6FB314604461A
:10A1800028460DF02DFB204606B070BD00040048A7
:10A190000D2070474FF0B04382B0DA6C0243DA64AE
:10A1A000DB6C18400190019B02B070472DE9F04133
:10A1B00086B01422002101A800F09AFB0220FFF7CC
:10A1C000E9FF144D144F0420FFF7E4FF4FF48076AD
:10A1D00001230024CDE9016301A903232846CDE929
:10A1E00003434FF400580DF04FFA01A93846CDF85B
:10A1F00004800DF049FA2246414638460DF06AFBCC
:10A200002846224631460DF065FB204606B0BDE8E3
:10A21000F08100BF0004004800080048032810B582
:10A220000ED8012810D868B902460B484FF4807147
:10A230000DF050FB002209484FF400510DF04AFB8D
:10A24000002010BD0122F0E7002203484FF4807186
:10A250000DF040FB0122EEE7000400480008004832
:10A2600002207047002070470120704708B5022087
:10A2700021F0FDFD08BD10B59AB04822002108A8C4
:10A2800000F036FB1822002102A800F031FB0EF08E
:10A29000DDF94FF0B0420024D2F8903023F01803DB
:10A2A000C2F89030D2F8003423F4C06343F4007352
:10A2B000C2F80034D2F80034119403F4C06301935F
:10A2C000019B2623089381230B93012310934FF4C2
:10A2D00080730C9340230D9308A8B023CDE912346A
:10A2E0000EF0EAFA08B102F0B7FE4F23022102A8ED
:10A2F000CDE90234CDE90444CDE906440EF07CFDFD
:10A3000008B102F0A9FE1AB010BD000013B5037821
:10A31000082B16D8DFE803F0179DA215AAAA051589
:10A32000AE00047920460BF0ADFD012802D1204695
:10A3300009F010FE204609F00BFC002120460BF02E
:10A34000A9FD02B010BD00200BF09CFD022831D108
:10A3500001200BF097FD022804D0012021F07EFAA5
:10A36000002843DC02200BF08DFD0228E9D00220FA
:10A3700021F074FA0028E4DD012201A9022021F075
:10A3800035F902200BF07EFD002850D00128EED1D7
:10A390009DF80410022009F0F3FCE8E7012201A96E
:10A3A000002021F023F900200BF06CFD044638B1A9
:10A3B000012815D0002021F051FA0028EEDCC7E773
:10A3C00021F028FA20B99DF8041009F02DFBF1E7DF
:10A3D0000128EFD19DF80410204621F075F9E9E736
:10A3E0009DF80410002009F0CBFCE3E7012201A94D
:10A3F000104621F0FBF801200BF044FD30B101289C
:10A40000ABD19DF8041009F0BBFCA6E7012021F0B8
:10A4100001FA28B99DF80410012009F005FB9CE71A
:10A4200001289AD19DF8041021F04EF995E70220F9
:10A4300021F0F0F928B99DF80410022009F0F4FA8F
:10A4400095E7012893D19DF80410022021F03CF9F2
:10A450008DE713F009FD04F0F3FD72E7074B1B686D
:10A46000002B3FF46EAF406898476AE7406821F0E0
:10A4700085FB66E7406821F05BFC62E7146300201F
:10A4800030B52E4B2E4A9A6085B00CF013FAFFF7C8
:10A49000F2FE4FF0B0430B209A6C42F004029A6433
:10A4A0009A6C02F004020392039A9A6C42F0010241
:10A4B0009A649B6C002203F0010311460293029BF5
:10A4C0000CF060FE0B200CF08FFE21F039FB0BF03E
:10A4D000ABFC0BF06BFD002401460546234603222E
:10A4E0000120CDE9004420F0BBFF2346032229468A
:10A4F0000220CDE9004420F0B3FF03F0D7FB04F0C5
:10A50000C7FDE5B228460BF0BDFC10B9284609F09E
:10A510001FFB0134032CF4D10024E0B20BF0B2FC99
:10A52000012802D1204609F0F1FC0134032CF4D1BA
:10A5300005B0BDE8304021F023BB00BF00ED00E0D6
:10A540000060000821F02ABBF7B5FFF799FF4FF034
:10A55000B0432E4EDA6C2E4C42F00202DA64DB6C11
:10A5600003F002030193019B06F05AF8294B341BB8
:10A570001427474300251C44BD4223D31FF076FA1D
:10A58000FFF7DEFD98B3244803F0F7F8234B244887
:10A590001A68244B196803F0F0F8234820F0EAFF0A
:10A5A00003F04CFC012824D0022824D010B91F4805
:10A5B00020F0E0FF1E4C21F0F1FA2378EBB91FF0F8
:10A5C00057FAF8E76A460421601921F033FA694620
:10A5D0003246042312F801CB11F8010B844518BF51
:10A5E00002F8010C013BF5D104350436C4E71148EB
:10A5F000CAE71148DCE71148DAE70BF089FC0028CC
:10A60000D9D0002021F04EFBD5E700BF8803002001
:10A610000000002010430308400A0308C000002087
:10A62000560A0308D8000020660A03087A0A0308BD
:10A63000E40D00204B0A0308860A0308910A030868
:10A64000054808B5082303600EF0CAFF18B1BDE83D
:10A65000084002F001BD08BD785D00204FF0B04316
:10A6600007B55A6E42F001025A665B6E002203F093
:10A670000103019311463220019B0CF083FD32202F
:10A6800003B05DF804EB0CF0AFBD0000024B98681E
:10A69000024BC0431860704700280040E80D0020BE
:10A6A000014B1868704700BFE80D0020034B044AB7
:10A6B0009B681068DB43181A704700BF00280040F1
:10A6C000E80D0020034B187810B1034B9868C04385
:10A6D000704700BFE50D00200028004003207047B0
:10A6E00008B501464FF47A7200238002890DFCF709
:10A6F00057FD08BD4FF47A72A0FB0223900A40EA8E
:10A700008350704710B5074B074C0122DA654FF4B0
:10A71000807120460EF06EFC4FF0FF332363002063
:10A7200010BD00BF00280040F85D00200246002157
:10A7300001480EF09ABE00BFF85D002002460121DC
:10A7400001480EF092BE00BFF85D002010B58CB03D
:10A750002C220021044601A800F0CAF8FFF7D2FF1E
:10A760000C4B186800230444089306934FF00053E1
:10A77000E4430793084802944FF48073012201A92F
:10A780000B930EF04DFD08B102F066FC00200CB0FA
:10A7900010BD00BFE80D0020F85D00200C4B70B527
:10A7A0009C68064602210B480EF066FEE443002238
:10A7B0001219C2F309044FF47A71A4FB014540F168
:10A7C0000003A40A900A348040EA835070BD00BFA1
:10A7D00000280040F85D0020014800210EF04CBE2A
:10A7E000F85D0020014801210EF046BEF85D002012
:10A7F000F8B5114E3578E5B9104C2A4629464FF088
:10A80000FF372846276302F05BF9FFF77BFF4FF421
:10A81000807120460EF0EEFB204627630EF0E0FD2F
:10A820002A46022120460EF020FEFFF72FFF0123CB
:10A8300033700020F8BD00BFE50D0020F85D00205A
:10A8400012F0D2B80B460146184600F001B80000DD
:10A8500010B504460448134620B10A46022021469A
:10A86000AFF3008010BD00BF0000000070B50D4DBB
:10A870000D4C641BA4100026A64209D10B4D0C4CB4
:10A8800025F0A8FB641BA4100026A64205D170BDCC
:10A8900055F8043B98470136EEE755F8043B9847D6
:10A8A0000136F2E7E8420308E8420308E8420308F9
:10A8B00004430308024B0146186800F06FB800BF5C
:10A8C000DC000020024B0146186800F019B800BFF8
:10A8D000DC0000200A44914200F1FF3300D17047B0
:10A8E00010B511F8014B03F8014F9142F9D110BD99
:10A8F00002440346934200D1704703F8011BF9E775
:10A9000038B50546002945D051F8043C0C1F002BF2
:10A91000B8BFE41801F0F2FB1F4A1368104633B9C0
:10A92000636014602846BDE8384001F0EDBBA342E7
:10A930000BD921686218934204BF1A685B68636090
:10A9400004BF521822600460ECE71A465B680BB142
:10A95000A342FAD911685018A0420BD120680144D3
:10A96000501883421160DDD118685B685360014460
:10A970001160D7E702D90C232B60D3E72068211898
:10A980008B4204BF19685B68636004BF09182160CB
:10A990005460C7E738BD00BFEC0D0020F8B5CD1CF2
:10A9A00025F0030508350C2D38BF0C25002D064673
:10A9B00001DBA94203D90C2333600020F8BD01F06C
:10A9C0009DFB21490A6814469CB9204F3B6823B976
:10A9D0002146304600F098FC38602946304600F0A9
:10A9E00093FC431C23D10C233360304601F08CFBD5
:10A9F000E3E723685B1B17D40B2B03D923601C44AC
:10AA0000256004E06368A2420CBF0B6053603046CF
:10AA100001F07AFB04F10B00231D20F00700C21A9D
:10AA2000CCD01B1AA350C9E722466468CCE7C41CEB
:10AA300024F00304A042E3D0211A304600F064FC65
:10AA40000130DDD1CFE700BFEC0D0020F00D00207C
:10AA50002DE9F04788B0002B1F461446B8BF03F11C
:10AA60000043129A109DDDF84CA0B6BF1F4600238C
:10AA70002D231370149B23F02008B8F1460F05D046
:10AA8000B8F1450F00D10135022300E0032307AAE6
:10AA9000049206AACDE902A2CDE9003522463B4642
:10AAA00000F056FDB8F1470F064602D1119BDB07B7
:10AAB00022D5B8F1460F06EB050910D13378302BBB
:10AAC0000AD10022002320463946FBF7E5FF18B9DA
:10AAD000C5F10105CAF80050DAF8003099440022A7
:10AAE000002320463946FBF7D7FF08B1CDF81C906C
:10AAF0003022079B4B4507D3079B159A9B1B30467B
:10AB0000136008B0BDE8F087591C07911A70F0E790
:10AB1000F7B503460029B8BF494203F8022BB4BF7A
:10AB20002D222B22092942702ADD0DF10704A446AB
:10AB30000A27A6460A4691FBF7F607FB161530359D
:10AB4000632A04F1FF340EF8015C3146F1DC303148
:10AB5000AEF1020504F8011C441C294661450AD3E4
:10AB60000DF10902A2EB0E02654588BF00221344D5
:10AB7000181A03B0F0BD11F8012B04F8012FEDE70E
:10AB8000302330318370C170031DF1E72DE9F04FA0
:10AB900091B00C46DDF8688016461F46054601F068
:10ABA000A9FA036809931846FBF7F4FA00230E93F9
:10ABB000D8F800300A90073323F0070303F10802A6
:10ABC00094F81890D4F800B0C8F80020D3E9002316
:10ABD000C4E91223D4E9128A2AF000430B930B999B
:10ABE0009C4B4FF0FF324046FBF788FF70BB994B00
:10ABF0000B994FF0FF324046FBF762FF30BB00225B
:10AC0000002340465146FBF751FF10B12D2384F835
:10AC10004330914B9148B9F1470F94BF9846804615
:10AC2000032323612BF0040323604FF0000A0097F5
:10AC300033460FAA2146284600F0D2F9013040F0F1
:10AC40008F804FF0FF3011B0BDE8F08F4246534681
:10AC500040465146FBF752FF40B1BAF1000FBCBF6E
:10AC60002D2384F843307E487E4BD4E763685A1C1A
:10AC700009F0DF0142D106236360002206920EAA8A
:10AC8000CDE904920DAA4BF4806303920DF13302D7
:10AC9000CDE901322360636800934246534628465B
:10ACA0000B91FFF7D5FE0B99472980460D9908D1E6
:10ACB000C81C02DB6368994240DDA9F102095FFA12
:10ACC00089F9B9F1650F1FD801394A4604F15000DE
:10ACD0000D91FFF71DFF0E9A1318012A824623617A
:10ACE00002DC2268D20701D5013323619DF833309D
:10ACF000002B9CD02D2384F8433098E74729BCD102
:10AD0000002BBAD10123B7E7B9F1660F18D100299A
:10AD100063680BDD216113B92268D00702D50133C6
:10AD20000B442361A1654FF0000ADFE713B92268E5
:10AD3000D20701D50233F4E70123F2E74FF06709A8
:10AD40000E9B994205DB23682161D807EAD54B1C8D
:10AD5000E7E70029D4BFC1F1020201221344E0E772
:10AD600023685A0507D42369424631462846B84726
:10AD700001302BD165E7B9F1650F40F2DC80D4E9F1
:10AD8000120100220023FBF787FE002833D0364A49
:10AD9000012331462846B84701303FF452AFDDE980
:10ADA0000D239A4202DB2368D8070FD5DDE909237A
:10ADB00031462846B84701303FF443AF4FF0000812
:10ADC00004F11A090E9B013B434509DC23689B07EC
:10ADD00000F10181E0680F9B9842B8BF184632E746
:10ADE00001234A4631462846B84701303FF429AF8F
:10ADF00008F10108E6E70D9B002B37DC1A4A012316
:10AE000031462846B84701303FF41BAFDDE90D233A
:10AE1000134302D12368D907D8D5DDE90923314688
:10AE20002846B84701303FF40CAF4FF0000904F159
:10AE30001A0A0D9B5B424B4501DC0E9B94E70123F4
:10AE4000524631462846B84701303FF4FAAE09F180
:10AE50000109EEE7FFFFEF7FC30B0308C70B0308F1
:10AE6000CF0B0308CB0B0308F42C03080E9AA36D39
:10AE70009A42A8BF1A46002A914637DC4FF0000BD1
:10AE800029EAE97904F11A02D4F858A0AAEB0903D7
:10AE90005B4533DCDDE90D239A423BDB2368DA07AF
:10AEA00038D40E9A0D99A2EB0A03A2EB0109994539
:10AEB000A8BF9946B9F1000F34DC4FF0000829EA29
:10AEC000E97904F11A0ADDE90D239B1AA3EB0903C2
:10AED00043457FF77BAF0123524631462846B847AA
:10AEE00001303FF4AEAE08F10108ECE713463146FD
:10AEF00042462846B8470130C0D1A2E60123314678
:10AF000028460B92B84701303FF49BAE0B9A0BF1E9
:10AF1000010BB9E7DDE9092331462846B84701307E
:10AF2000BFD18EE64B4608EB0A0231462846B847A9
:10AF30000130C2D185E60E9A012A01DCDB0737D544
:10AF40000123424631462846B84701303FF479AEE6
:10AF5000DDE9092331462846B84701303FF471AE98
:10AF6000D4E9120100220023FBF796FDD8B90E9B0D
:10AF700008F10102013B31462846B84701300ED1A5
:10AF80005FE601234A4631462846B84701303FF480
:10AF900058AE08F101080E9B013B4345F1DC5346D6
:10AFA00004F15002E1E64FF0000804F11A09F2E75B
:10AFB00001234246DFE701234A4631462846B84787
:10AFC00001303FF43EAE08F10108E3680F995B1AC7
:10AFD0004345F0DCFEE64FF0000804F11909F4E700
:10AFE0002DE9F047164699468A680B69DDF82080FE
:10AFF0009342B8BF1346336091F8432007460C468E
:10B000000AB1013333602368990642BF33680233C3
:10B010003360256815F0060506D104F1190AE368C6
:10B0200032689B1AAB4226DC94F84320131E226838
:10B0300018BF012392062BD404F143024946384637
:10B04000C04701301ED02368E568326803F006036C
:10B05000042B08BFAD1AA36822690CBF25EAE57569
:10B0600000259342C4BF9B1AED1800261A34B5423E
:10B070001AD1002008E00123524649463846C0470D
:10B08000013003D14FF0FF30BDE8F0870135C6E74E
:10B09000E1185A1C302081F84300224494F84510EE
:10B0A00082F843100233C7E7012322464946384657
:10B0B000C0470130E6D00136D9E700002DE9FF474F
:10B0C0000C469146277E0C99782F80469A4604F1CB
:10B0D000430207D8622F0AD8002F00F0D880582FDB
:10B0E00000F0A38004F1420684F842703AE0A7F130
:10B0F0006303152BF6D801A050F823F055B10008D2
:10B1000069B10008E5B00008E5B00008E5B0000846
:10B11000E5B0000869B10008E5B00008E5B0000836
:10B12000E5B00008E5B0000875B2000899B1000864
:10B1300057B20008E5B00008E5B0000897B2000873
:10B14000E5B0000899B10008E5B00008E5B00008D6
:10B150005FB200080B681A1D1B680A6004F1420602
:10B1600084F842300123A3E0256808682E0600F128
:10B1700004030AD505680B60002D03DA2D236D4208
:10B1800084F843305E480A2319E015F0400F056843
:10B190000B6018BF2DB2EFE70B682568181D08601B
:10B1A000280601D51D6802E06906FBD51D885448B4
:10B1B0006F2F0CBF08230A23002184F84310666810
:10B1C000A660002EA2BF216821F0040121600DB904
:10B1D000002E4DD01646B5FBF3F103FB1157C75DAA
:10B1E00006F8017D2F46BB420D46F4D9082B0BD142
:10B1F0002368DF0708D5236961689942DEBF3023E1
:10B2000006F8013C06F1FF36921B2261CDF800A042
:10B210004B4603AA21464046FFF7E2FE01304CD1DF
:10B220004FF0FF3004B0BDE8F087354884F8457032
:10B2300023680E681F0656F8045B0E6014D5D90704
:10B2400044BF43F0200323601DB9236823F020038B
:10B2500023601023B0E7236843F0200323607823A2
:10B26000284884F84530E3E75E0648BFADB2E6E71C
:10B270001646BBE70B68266860691D1D0D60350624
:10B280001B6801D5186002E07106FBD51880002309
:10B2900023611646BAE70B681A1D0A601E686268C9
:10B2A00000213046FAF784FF08B1801B60606368B4
:10B2B0002361002384F84330A8E7236932464946D6
:10B2C0004046D0470130ABD023689B0713D4E068D9
:10B2D000039B9842B8BF1846A4E70123324649466B
:10B2E0004046D04701309BD00135E36803995B1A93
:10B2F000AB42F2DCEBE7002504F11906F5E700BFED
:10B30000D30B0308E40B030838B5064D00230446AD
:10B3100008462B6001F036FA431C02D12B6803B1BA
:10B32000236038BD845D00202DE9F0433B4E864606
:10B330008C4660461CF8014BA55D15F00805F8D158
:10B340002D2C34D19CF800404FF0010800F1020C84
:10B35000002B5ED0102B0CD1302C0AD19CF80000B1
:10B3600000F0DF0058284FD19CF8014010230CF169
:10B37000020C4FF0FF370025B7FBF3F703FB07F98B
:10B380006FEA09092846A4F13006092E18D8344678
:10B39000A34224DD002D1FDB87421DD301D1A1452F
:10B3A0001ADB00FB034001251CF8014BEBE72B2CBB
:10B3B00008BF9CF80040A84608BF00F1020CC7E790
:10B3C000A4F14106192E01D8373CE1E7A4F161064A
:10B3D000192E04D8573CDBE74FF0FF35E4E7002D8A
:10B3E00007DA2223CEF800304FF0FF3042B9BDE833
:10B3F000F083B8F1000F00D04042002AF7D00DB121
:10B400000CF1FF311160F2E73024002BB1D1082399
:10B41000AFE7302CA2D00A23ABE700BFF60B03083E
:10B4200013460A46014602480068FFF77DBF00BF89
:10B43000DC0000202DE9F74F03690C69A3420746A1
:10B44000C0F28180013C01F1140800F1140505EB04
:10B450008403019358F8243055F8242001339A428C
:10B460004FEA840B08EB8409B2FBF3F631D34FF0BB
:10B47000000E4046AC46F24650F8042B93B206FB51
:10B4800003E34FEA134E9BB2AAEB0303120CDCF862
:10B4900000A006FB02E213FA8AF34FEA124E1FFAEB
:10B4A00082FADCF80020CAEB124202EB23429BB284
:10B4B00043EA024381454CF8043B4FEA224ADBD27F
:10B4C00055F80B302BB9019B043B9D421A462ED3F5
:10B4D0003C61384601F047F8002824DB0136284655
:10B4E0004FF0000C58F8042BD0F800E093B2ACEB0E
:10B4F0000303120C13FA8EF3C2EB1E4202EB23423B
:10B500009BB243EA0243C14540F8043B4FEA224C58
:10B51000E8D255F8242005EB840322B9043B9D4270
:10B520001A460AD33C61304603B0BDE8F08F12687A
:10B53000043B002ACCD1013CC7E71268043B002A37
:10B54000F0D1013CEBE70020EEE700000000000036
:10B550002DE9F04F446A99B016461F46CDE90467BD
:10B56000DDF8948005463CB91020FFF7A3F9C0E947
:10B57000014468620460C4606B6A196851B15A681A
:10B580004A60012393408B60284600F0F7FD6B6A08
:10B5900000221A603B1EB9BF23F00043059300232D
:10B5A000C8F80030DDF81490A74BBCBF0122C8F8E2
:10B5B000002033EA090319D1249A42F20F73136071
:10B5C000C9F31303334300F06D85269B53B99F4B9A
:10B5D00023E09F4B03930833269A1360039819B016
:10B5E000BDE8F08F994B03930333F5E7DDE90434AD
:10B5F000CDE90C34DDE90C0100220023FBF74CFA05
:10B60000804660B1249A01231360269B002B00F032
:10B610004685904B269A1360013B0393DEE716ABF9
:10B62000019317AB00932846DDE90C2301F02CF8B9
:10B63000C9F30A548346002C7ED00D9BCDF84C8074
:10B64000C3F31303DDE90C0143F07F5141F44011D2
:10B65000A4F2FF34804B0022FAF7FEFD74A3D3E975
:10B660000023FAF7B1FF74A3D3E90023FAF7F6FD3C
:10B67000064620460F46FAF73DFF71A3D3E90023A3
:10B68000FAF7A2FF02460B4630463946FAF7E6FDC6
:10B6900006460F46FBF748FA002282460023304652
:10B6A0003946FBF703FA48B15046FAF723FF324612
:10B6B0003B46FBF7F1F908B90AF1FF3ABAF1160F68
:10B6C00057D8664B03EBCA03D3E90023DDE90C012D
:10B6D000FBF7ECF900284ED00AF1FF3A00230F9354
:10B6E000169B1C1B631E099345BFC4F101030693FF
:10B6F000002300234CBF09930693BAF1000F3CDBF3
:10B70000099BCDF838A05344099300230A93229B48
:10B71000092B00F2B580052BC4BF043B2293229B6A
:10B72000A3F10203CCBF00240124032B00F2B48058
:10B73000DFE803F02D987AA4DDE916431C4404F2F7
:10B740003243202BC3BFC3F1400304F2124009FA75
:10B7500003F3C3F12003C6BF26FA00F0184306FA2C
:10B7600003F0FAF7B7FE0123A1F1F871013C13933E
:10B7700070E70123B3E70F90B2E7069BA3EB0A0340
:10B780000693CAF100030A9300230E93BFE7002338
:10B790000B93239B002B00F382804FF00109CDF81F
:10B7A00020904B46CDF88C906E6A00227260042285
:10B7B00002F114009842716877D9284600F0AAFC7B
:10B7C0006B6A30601B680393089B0E2B00F2EE80BF
:10B7D000002C00F0EB80BAF1000F7ADD1F4A0AF06E
:10B7E0000F0302EBC303D3E900341AF4807FCDE9E1
:10B7F00010344FEA2A145CD0194BDDE90C01D3E96F
:10B800000823FBF70BF8CDE9040104F00F0403272C
:10B81000134E002C4FD1DDE91023DDE90401FAF7C6
:10B82000FDFFCDE904016EE00123B1E7AFF3008035
:10B8300061436F63A787D23FB3C8608B288AC63F36
:10B84000FB799F501344D33F0000F07FFF0C0308A7
:10B85000F60C0308F52C03080000F83F300D030830
:10B86000080D030800230B93239B0AEB030909F13E
:10B870000103012B0893B8BF012395E70123F2E7E9
:10B880000124002322930B944FF0FF390022CDF8BE
:10B8900020901223239287E701230B93F4E7DDF82E
:10B8A0008C90CDF820904B467EE7013171605200BC
:10B8B0007EE70227ACE7E10708D5DDE91001D6E90C
:10B8C0000023FAF781FECDE9100101376410083634
:10B8D0009FE700F0A580CAF10004A44BA44E04F039
:10B8E0000F0203EBC203D3E90023DDE90C01FAF7F1
:10B8F0006BFECDE90401241100230227002C40F047
:10B900008480002B8DD10F9B002B00F08B80DDE914
:10B910000434CDE91034DDE91001964B0022FBF729
:10B92000C5F800287ED0089B002B7BD0B9F1000F12
:10B9300038DDDDE91001904B0022FAF745FECDE934
:10B9400004010AF1FF3801374C463846FAF7D2FDB8
:10B95000DDE90423FAF738FE884B0022FAF77EFC73
:10B96000A1F15076CDE910011196002C5DD1DDE9F1
:10B970000401834B0022FAF76FFC02460B46CDE927
:10B980000423109A3346FBF7AFF8002840F0978263
:10B99000DDE90401109A06F10043FBF787F800285F
:10B9A00040F08B82DDE90C34CDE90434179B002B89
:10B9B000C0F25181BAF10E0F00F34D816B4B03EBD6
:10B9C000CA03D3E90034CDE90634239B002B80F26F
:10B9D000DB80089B002B00F3D78040F06D82684B22
:10B9E0000022DDE90601FAF7EFFDDDE90423FBF7AC
:10B9F00071F8089C2646002840F04382039F3123BB
:10BA000007F8013B0AF1010A3FE2E20705D5D6E952
:10BA10000023FAF7D9FD01370123641008366DE7DA
:10BA2000022770E7089CD0468FE703994F4B2144CB
:10BA300012910B9903EBC403DDE9106753E902236C
:10BA4000002946D04F490020FAF7E8FE3B4632462F
:10BA5000FAF702FCCDE91001039FDDE90401FBF7D1
:10BA600063F80446FAF746FD02460B46DDE9040199
:10BA7000FAF7F2FB303402460B46CDE9042307F80F
:10BA8000014BDDE91023FBF711F8002865D1DDE952
:10BA9000042338490020FAF7DFFBDDE91023FBF728
:10BAA00005F8002840F0B680129B9F423FF47AAF21
:10BAB000DDE91001304B0022FAF786FD2E4BCDE96F
:10BAC00010010022DDE90401FAF77EFDCDE9040151
:10BAD000C3E730463946FAF777FDCDE91001129BEE
