:020000040800F2
:1060000000FC00201DC8000899C800089BC80008B3
:106010009DC800089FC80008A1C800080000000033
:10602000000000000000000000000000A3C80008FD
:10603000A5C8000800000000A7C80008A9C80008FB
:106040006DC800086DC800086DC800086DC800085C
:106050006DC800086DC800081FC9000825C90008E0
:106060002BC9000831C9000837C90008D5C8000885
:10607000E1C80008EDC80008F9C800086DC80008AC
:106080006DC800086DC800086DC800086DC800081C
:106090006DC800086DC800083DC900086DC800083B
:1060A0006DC800086DC800086DC800086DC80008FC
:1060B0006DC800086DC800086DC800086DC80008EC
:1060C000E9C90008F5C900086DC800086DC80008D6
:1060D00005C900081DC90008D1C900086DC800081D
:1060E0006DC800087DC90008BDC800086DC800085B
:1060F0006DC800086DC800086DC800086DC80008AC
:106100006DC800086DC80008C9C800086DC800083F
:106110006DC800086DC800086DC800086DC800088B
:106120006DC800086DC800086DC800086DC800087B
:086130006DC800086DC80008ED
:1061400010B5054C237833B9044B13B10448AFF3B1
:1061500000800123237010BD880D00200000000086
:10616000A400030808B5034B1BB103490348AFF370
:10617000008008BD000000008C0D0020A400030872
:1061800010F8012B11F8013B012A28BF9A42F7D0E1
:10619000D01A7047034613F8012B002AFBD1181AB6
:1061A00001387047000000000000000000000000FF
:1061B00001F0FF01102A2BDB10F0070F08D010F8B8
:1061C000013B013A8B422DD010F0070F42B3F6D1BC
:1061D000F0B441EA012141EA014122F007047FF0D5
:1061E00000070023F0E80256083C85EA010586EA2C
:1061F000010685FA47F5A3FA87F586FA47F6A5FA68
:1062000087F68EB9EED1F0BC01F0FF0102F0070273
:1062100032B110F8013B013A83EA010313B1F8D11E
:106220000020704701387047002D06BF35460338FF
:10623000073815F0010F07D1013015F4807F02BF38
:10624000013015F4C03F0130F0BC0138704700BF89
:1062500081F0004102E000BF83F0004330B54FEA17
:1062600041044FEA430594EA050F08BF90EA020F84
:106270001FBF54EA000C55EA020C7FEA645C7FEA17
:10628000655C00F0E2804FEA5454D4EB5555B8BF3A
:106290006D420CDD2C4480EA020281EA030382EAAB
:1062A000000083EA010180EA020281EA0303362D3D
:1062B00088BF30BD11F0004F4FEA01314FF4801C10
:1062C0004CEA113102D0404261EB410113F0004F22
:1062D0004FEA03334CEA133302D0524263EB4303D9
:1062E00094EA050F00F0A780A4F10104D5F1200E77
:1062F0000DDB02FA0EFC22FA05F2801841F10001D2
:1063000003FA0EF2801843FA05F359410EE0A5F1A5
:1063100020050EF1200E012A03FA0EFC28BF4CF0D6
:10632000020C43FA05F3C01851EBE37101F000458C
:1063300007D54FF0000EDCF1000C7EEB00006EEB99
:106340000101B1F5801F1BD3B1F5001F0CD3490823
:106350005FEA30004FEA3C0C04F101044FEA44527A
:1063600012F5800F80F09A80BCF1004F08BF5FEA01
:10637000500C50F1000041EB045141EA050130BDE1
:106380005FEA4C0C404141EB0101013C28BFB1F5F3
:10639000801FE9D291F0000F04BF01460020B1FA3E
:1063A00081F308BF2033A3F10B03B3F120020CDA11
:1063B0000C3208DD02F1140CC2F10C0201FA0CF0EF
:1063C00021FA02F10CE002F11402D8BFC2F1200C54
:1063D00001FA02F120FA0CFCDCBF41EA0C0190400A
:1063E000E41AA2BF01EB0451294330BD6FEA040453
:1063F0001F3C1CDA0C340EDC04F11404C4F120023E
:1064000020FA04F001FA02F340EA030021FA04F34F
:1064100045EA030130BDC4F10C04C4F1200220FAA6
:1064200002F001FA04F340EA0300294630BD21FAE4
:1064300004F0294630BD94F0000F83F4801306BFAA
:1064400081F480110134013D4EE77FEA645C18BF9E
:106450007FEA655C29D094EA050F08BF90EA020F35
:1064600005D054EA000C04BF1946104630BD91EA2D
:10647000030F1EBF0021002030BD5FEA545C05D130
:106480004000494128BF41F0004130BD14F580046F
:106490003CBF01F5801130BD01F0004545F0FE41E3
:1064A00041F470014FF0000030BD7FEA645C1ABF18
:1064B000194610467FEA655C1CBF0B46024650EA4F
:1064C000013406BF52EA033591EA030F41F400217B
:1064D00030BD00BF90F0000F04BF0021704730B501
:1064E0004FF4806404F132044FF000054FF00001D6
:1064F00050E700BF90F0000F04BF0021704730B597
:106500004FF4806404F1320410F0004548BF40426B
:106510004FF000013EE700BF42004FEAE2014FEAC0
:1065200031014FEA02701FBF12F07F4393F07F4F9B
:1065300081F06051704732F07F4208BF704793F09E
:106540007F4F04BF41F40021704730B54FF46074B1
:1065500001F0004521F000411CE700BF50EA0102B4
:1065600008BF704730B54FF000050AE050EA01025D
:1065700008BF704730B511F0004502D5404261EBCD
:1065800041014FF4806404F132045FEA915C3FF40E
:10659000D8AE4FF003025FEADC0C18BF03325FEAAB
:1065A000DC0C18BF033202EBDC02C2F1200300FA5C
:1065B00003FC20FA02F001FA03FE40EA0E0021FA81
:1065C00002F11444BDE600BF70B54FF0FF0C4CF46F
:1065D000E06C1CEA11541DBF1CEA135594EA0C0F21
:1065E00095EA0C0F00F0DEF82C4481EA030621EA5C
:1065F0004C5123EA4C5350EA013518BF52EA033597
:1066000041F4801143F4801338D0A0FB02CE4FF048
:106610000005E1FB02E506F00042E0FB03E54FF078
:106620000006E1FB03569CF0000F18BF4EF0010E70
:10663000A4F1FF04B6F5007F64F5407404D25FEA6C
:106640004E0E6D4146EB060642EAC62141EA55511F
:106650004FEAC52040EA5E504FEACE2EB4F1FD0C61
:1066600088BFBCF5E06F1ED8BEF1004F08BF5FEADF
:10667000500E50F1000041EB045170BD06F0004691
:1066800046EA010140EA020081EA0301B4EB5C043E
:10669000C2BFD4EB0C0541EA045170BD41F4801136
:1066A0004FF0000E013C00F3AB8014F1360FDEBF5B
:1066B000002001F0004170BDC4F10004203C35DA37
:1066C0000C341BDC04F11404C4F1200500FA05F3BA
:1066D00020FA04F001FA05F240EA020001F000425B
:1066E00021F0004110EBD37021FA04F642EB0601D1
:1066F0005EEA430E08BF20EAD37070BDC4F10C04FB
:10670000C4F1200500FA04F320FA05F001FA04F2BE
:1067100040EA020001F0004110EBD37041F10001AA
:106720005EEA430E08BF20EAD37070BDC4F12005B5
:1067300000FA05F24EEA020E20FA04F301FA05F21D
:1067400043EA020321FA04F001F0004121FA04F2C5
:1067500020EA020000EBD3705EEA430E08BF20EA95
:10676000D37070BD94F0000F0FD101F000464000CF
:1067700041EB010111F4801F08BF013CF7D041EA51
:10678000060195F0000F18BF704703F00046520055
:1067900043EB030313F4801F08BF013DF7D043EA26
:1067A0000603704794EA0C0F0CEA135518BF95EADC
:1067B0000C0F0CD050EA410618BF52EA4306D1D163
:1067C00081EA030101F000414FF0000070BD50EA82
:1067D000410606BF1046194652EA430619D094EA0C
:1067E0000C0F02D150EA013613D195EA0C0F05D1F6
:1067F00052EA03361CBF104619460AD181EA03014A
:1068000001F0004141F0FE4141F470014FF0000001
:1068100070BD41F0FE4141F4780170BD70B54FF09C
:10682000FF0C4CF4E06C1CEA11541DBF1CEA13551C
:1068300094EA0C0F95EA0C0F00F0A7F8A4EB0504FE
:1068400081EA030E52EA03354FEA013100F08880F5
:106850004FEA03334FF0805545EA131343EA1263BE
:106860004FEA022245EA111545EA10654FEA002673
:106870000EF000419D4208BF964244F1FD0404F52C
:10688000407402D25B084FEA3202B61A65EB030588
:106890005B084FEA32024FF480104FF4002CB6EB45
:1068A000020E75EB030E22BFB61A754640EA0C00C5
:1068B0005B084FEA3202B6EB020E75EB030E22BF05
:1068C000B61A754640EA5C005B084FEA3202B6EB46
:1068D000020E75EB030E22BFB61A754640EA9C0005
:1068E0005B084FEA3202B6EB020E75EB030E22BFD5
:1068F000B61A754640EADC0055EA060E18D04FEA93
:10690000051545EA16754FEA06164FEAC30343EA32
:1069100052734FEAC2025FEA1C1CC0D111F4801FFF
:106920000BD141EA00014FF000004FF0004CB6E7F8
:1069300011F4801F04BF01430020B4F1FD0C88BF97
:10694000BCF5E06F3FF6AFAEB5EB030C04BFB6EBA2
:10695000020C5FEA500C50F1000041EB045170BD95
:106960000EF0004E4EEA113114EB5C04C2BFD4EBC2
:106970000C0541EA045170BD41F480114FF0000E46
:10698000013C90E645EA060E8DE60CEA135594EAC2
:106990000C0F08BF95EA0C0F3FF43BAF94EA0C0FC5
:1069A0000AD150EA01347FF434AF95EA0C0F7FF43A
:1069B00025AF104619462CE795EA0C0F06D152EA8E
:1069C00003353FF4FDAE1046194622E750EA410672
:1069D00018BF52EA43067FF4C5AE50EA41047FF483
:1069E0000DAF52EA43057FF4EBAE12E74FF0FF3CE8
:1069F00006E000BF4FF0010C02E000BF4FF0010CB9
:106A00004DF804CD4FEA410C7FEA6C5C4FEA430C31
:106A100018BF7FEA6C5C1BD001B050EA410C0CBF80
:106A200052EA430C91EA030F02BF90EA020F0020E2
:106A3000704710F1000F91EA030F58BF994208BF49
:106A400090422CBFD8176FEAE37040F00100704706
:106A50004FEA410C7FEA6C5C02D150EA013C07D15D
:106A60004FEA430C7FEA6C5CD6D152EA033CD3D0A8
:106A70005DF8040B704700BF8446104662468C46A2
:106A80001946634600E000BF01B5FFF7B7FF0028D5
:106A900048BF10F1000F01BD4DF808EDFFF7F4FFFE
:106AA0000CBF012000205DF808FB00BF4DF808ED89
:106AB000FFF7EAFF34BF012000205DF808FB00BFAC
:106AC0004DF808EDFFF7E0FF94BF012000205DF8CE
:106AD00008FB00BF4DF808EDFFF7CEFF94BF012083
:106AE00000205DF808FB00BF4DF808EDFFF7C4FF7C
:106AF00034BF012000205DF808FB00BF4FEA410CC5
:106B00007FEA6C5C02D150EA013C0AD14FEA430CA7
:106B10007FEA6C5C02D152EA033C02D14FF00000E4
:106B200070474FF0010070474FEA410212F5001222
:106B300015D211D56FF47873B3EB625212D94FEAC4
:106B4000C12343F0004343EA505311F0004F23FAAE
:106B500002F018BF404270474FF00000704750EA03
:106B6000013005D111F0004008BF6FF000407047C0
:106B70004FF00000704700BF4A0011D212F500121A
:106B800011D20DD56FF47873B3EB62520ED44FEA85
:106B9000C12343F0004343EA505323FA02F0704705
:106BA0004FF00000704750EA013002D14FF0FF3043
:106BB00070474FF00000704780F0004002E000BFD7
:106BC00081F0004142001FBF5FEA410392EA030FD8
:106BD0007FEA226C7FEA236C6AD04FEA1262D2EB22
:106BE0001363C1BFD218414048404140B8BF5B4227
:106BF000192B88BF704710F0004F40F4000020F0C0
:106C00007F4018BF404211F0004F41F4000121F0D5
:106C10007F4118BF494292EA030F3FD0A2F101021F
:106C200041FA03FC10EB0C00C3F1200301FA03F15D
:106C300000F0004302D5494260EB4000B0F5000F80
:106C400013D3B0F1807F06D340084FEA310102F13F
:106C50000102FE2A51D2B1F1004F40EBC25008BFF1
:106C600020F0010040EA03007047490040EB0000BB
:106C7000013A28BFB0F5000FEDD2B0FA80FCACF1BC
:106C8000080CB2EB0C0200FA0CF0AABF00EBC250E9
:106C900052421843BCBFD0401843704792F0000FD7
:106CA00081F4000106BF80F400000132013BB5E72A
:106CB0004FEA41037FEA226C18BF7FEA236C21D0A0
:106CC00092EA030F04D092F0000F08BF0846704705
:106CD00090EA010F1CBF0020704712F07F4F04D1D3
:106CE000400028BF40F00040704712F100723CBFE6
:106CF00000F50000704700F0004343F0FE4040F410
:106D0000000070477FEA226216BF08467FEA2363CD
:106D10000146420206BF5FEA412390EA010F40F4B8
:106D2000800070474FF0000304E000BF10F0004304
:106D300048BF40425FEA000C08BF704743F09643EB
:106D400001464FF000001CE050EA010208BF704706
:106D50004FF000030AE000BF50EA010208BF70478D
:106D600011F0004302D5404261EB41015FEA010CA2
:106D700002BF84460146002043F0B64308BFA3F19A
:106D80008053A3F50003BCFA8CF2083AA3EBC2537C
:106D900010DB01FA02FC634400FA02FCC2F120029B
:106DA000BCF1004F20FA02F243EB020008BF20F0D2
:106DB0000100704702F1200201FA02FCC2F1200238
:106DC00050EA4C0021FA02F243EB020008BF20EA2D
:106DD000DC7070474FF0FF0C1CEAD0521EBF1CEA5B
:106DE000D15392EA0C0F93EA0C0F6FD01A4480EA49
:106DF000010C400218BF5FEA41211ED04FF0006332
:106E000043EA501043EA5111A0FB01310CF000405D
:106E1000B1F5000F3EBF490041EAD3715B0040EA83
:106E2000010062F17F02FD2A1DD8B3F1004F40EB53
:106E3000C25008BF20F00100704790F0000F0CF026
:106E4000004C08BF49024CEA502040EA51207F3AEA
:106E5000C2BFD2F1FF0340EAC250704740F40000C5
:106E60004FF00003013A5DDC12F1190FDCBF00F0B6
:106E700000407047C2F10002410021FA02F1C2F164
:106E8000200200FA02FC5FEA310040F1000053EA00
:106E90004C0308BF20EADC70704792F0000F00F04E
:106EA000004C02BF400010F4000F013AF9D040EA54
:106EB0000C0093F0000F01F0004C02BF490011F4E8
:106EC000000F013BF9D041EA0C018FE70CEAD153E6
:106ED00092EA0C0F18BF93EA0C0F0AD030F0004C66
:106EE00018BF31F0004CD8D180EA010000F000401A
:106EF000704790F0000F17BF90F0004F084691F0D8
:106F0000000F91F0004F14D092EA0C0F01D1420211
:106F10000FD193EA0C0F03D14B0218BF084608D1DA
:106F200080EA010000F0004040F0FE4040F4000024
:106F3000704740F0FE4040F4400070474FF0FF0CB7
:106F40001CEAD0521EBF1CEAD15392EA0C0F93EAFE
:106F50000C0F69D0A2EB030280EA010C49024FEA50
:106F6000402037D04FF0805343EA111143EA101309
:106F70000CF000408B4238BF5B0042F17D024FF4C1
:106F8000000C8B4224BF5B1A40EA0C00B3EB510F9C
:106F900024BFA3EB510340EA5C00B3EB910F24BF85
:106FA000A3EB910340EA9C00B3EBD10F24BFA3EB0A
:106FB000D10340EADC001B0118BF5FEA1C1CE0D1D2
:106FC000FD2A3FF650AF8B4240EBC25008BF20F085
:106FD000010070470CF0004C4CEA50207F32C2BFD9
:106FE000D2F1FF0340EAC250704740F400004FF076
:106FF0000003013A37E792F0000F00F0004C02BFA7
:10700000400010F4000F013AF9D040EA0C0093F070
:10701000000F01F0004C02BF490011F4000F013BCA
:10702000F9D041EA0C0195E70CEAD15392EA0C0F32
:1070300008D142027FF47DAF93EA0C0F7FF470AF6A
:10704000084676E793EA0C0F04D14B023FF44CAFAD
:1070500008466EE730F0004C18BF31F0004CCAD142
:1070600030F000427FF45CAF31F000437FF43CAF7E
:107070005FE700BF4FF0FF3C06E000BF4FF0010CA0
:1070800002E000BF4FF0010C4DF804CD4FEA400282
:107090004FEA41037FEA226C18BF7FEA236C11D0CC
:1070A00001B052EA530C18BF90EA010F58BFB2EB7F
:1070B000030088BFC81738BF6FEAE17018BF40F0FF
:1070C000010070477FEA226C02D15FEA402C05D1B3
:1070D0007FEA236CE4D15FEA412CE1D05DF8040B38
:1070E000704700BF844608466146FFE70FB5FFF7CB
:1070F000C9FF002848BF10F1000F0FBD4DF808ED83
:10710000FFF7F4FF0CBF012000205DF808FB00BF73
:107110004DF808EDFFF7EAFF34BF012000205DF8CD
:1071200008FB00BF4DF808EDFFF7E0FF94BF01201A
:1071300000205DF808FB00BF4DF808EDFFF7D2FF17
:1071400094BF012000205DF808FB00BF4DF808ED5A
:10715000FFF7C8FF34BF012000205DF808FB00BF27
:1071600042000ED2B2F1FE4F0BD34FF09E03B3EBB1
:10717000126209D44FEA002343F0004323FA02F0DD
:1071800070474FF00000704712F1610F01D14202C9
:1071900002D14FF0FF3070474FF00000704700BF42
:1071A00053B94AB9002908BF00281CBF4FF0FF316E
:1071B0004FF0FF3001F0D2B8ADF1080C6DE904CE0C
:1071C00000F01AF8DDF804E0DDE9022304B07047AE
:1071D000430803F05533C01A830803F0333300F03B
:1071E0003330184400EB101000F00F3000EB00209B
:1071F00000EB0040000E70472DE9F047089E0D4659
:1072000004468E46002B40F082808A42174646D9BB
:10721000B2FA82F24AB1C2F1200105FA02F320FA71
:1072200001F1974041EA030E94404FEA1748230CBE
:10723000BEFBF8FCB9B208FB1CEE43EA0E430CFBA4
:1072400001F098420AD9FB180CF1FF3580F0168145
:10725000984240F21381ACF1020C3B441B1AA4B2D9
:10726000B3FBF8F008FB103344EA034400FB01F1E0
:10727000A14209D93C1900F1FF3380F00181A142FC
:1072800040F2FE8002383C44641A40EA0C4000217F
:107290001EB1D4400023C6E90043BDE8F08702B91F
:1072A000FFDEB2FA82F2002A4FD1CB1B4FEA174E13
:1072B0001FFA87F80121B3FBFEFC250C0EFB1C33E3
:1072C00045EA034508FB0CF3AB4207D97D190CF1E5
:1072D000FF3002D2AB4200F2E7808446ED1AA3B23F
:1072E000B5FBFEF00EFB105543EA054408FB00F821
:1072F000A04507D93C1900F1FF3302D2A04500F2A6
:10730000D7801846A4EB080440EA0C40C0E78B4243
:1073100008D9002E00F0AF800021C6E9000508461C
:10732000BDE8F087B3FA83F100294BD1AB4202D319
:10733000824200F2B780841A65EB030301209E4667
:10734000002EAAD0C6E9004EA7E7C2F1200C01FA30
:1073500002F3974020FA0CF04FEA174E21FA0CFC8A
:107360001843BCFBFEF1050C0EFB11CC1FFA87F88D
:1073700045EA0C4501FB08F3AB4204FA02F409D9D3
:107380007D1901F1FF3C80F08B80AB4240F2888098
:1073900002393D44EB1A85B2B3FBFEF00EFB10330D
:1073A00045EA034500FB08F3AB4207D97D1900F11C
:1073B000FF3C71D2AB426FD902383D44EB1A40EA30
:1073C000014178E7C1F1200C8B4022FA0CF71F43F2
:1073D00020FA0CF405FA01F34FEA174E25FA0CF5E2
:1073E0001C43230CB5FBFEF91FFA87F80EFB195559
:1073F00043EA054509FB08FAAA4502FA01F200FA38
:1074000001F308D97D1909F1FF3047D2AA4545D9C2
:10741000A9F102093D44A5EB0A05A4B2B5FBFEF0B3
:107420000EFB105544EA054400FB08F8A04507D9B7
:107430003C1900F1FF352DD2A0452BD902383C4430
:1074400040EA0940A4EB0804A0FB02894C45C6466B
:107450004D4619D316D05EB1B3EB0E0264EB0504B2
:1074600004FA0CFCCA404CEA0202CC40C6E90024F3
:107470000021BDE8F087314630460EE7AC46EDE628
:10748000184601E74345E6D2B8EB020E69EB070563
:107490000138E0E72846D3E760468FE78146BAE740
:1074A000614677E708464BE7ACF1020C3D4415E72F
:1074B00002383C4426E700BF03685A004CBF43F043
:1074C000004323F000431844704700BF2DE9F84300
:1074D00029B34F1E044615463E464FF0000808EB00
:1074E000060101EBD171491004EBC1094846FFF7D1
:1074F000E3FF0346C80008308F42204409D0AB4266
:1075000009D8FFF7D9FF0138A8420AD201F10108D2
:10751000E5E7AB4205D9884501D04E1EDFE74FF0C5
:1075200000094846BDE8F883012807D0022807D0A3
:10753000044B00280CBF18460020704702487047D3
:1075400002487047ED7B0008F17B0008F57B0008DE
:1075500030B5234B83B004468D1E3BB301A92846AA
:10756000AFF30080E8B101992A46FFF7AFFF01466B
:10757000B8B1FFF7A1FF4B68A064012B2BD0002B03
:1075800001F1040023DBFFF797FF0023C4E9130395
:107590000368002B10DBFFF78FFF2061002003B092
:1075A00030BD00230920236103B030BD0D490E48D2
:1075B000091AC9100191D7E7C3F30360FFF7B4FFBD
:1075C0000028206114BF0020092003B030BD012332
:1075D000C4E91303DCE7002323610520DFE700BFD4
:1075E0000000000038440308804103080368DA07FC
:1075F00010B5044606D49B0700F1480009D500F0F9
:107600004BFC2368590709D51A070ED5DB0613D59D
:1076100010BD00F039FC23685907F5D404F1D000FF
:1076200000F042FC23681A07F0D404F5A87000F0BB
:1076300043FC2368DB06EBD404F5E870BDE810409A
:1076400000F07EBC0346006800B11844704700BFDC
:1076500009207047704700BF70B504460E46316C74
:107660002046FFF775FF054688B9336C63613246E3
:1076700023692146012098470828F0D0072806D121
:107680002846316CFFF7E6FF301D00F0F1FB28F0D3
:10769000A1FC00BF2DE9F0470D1D064614460FCD95
:1076A000ADF5727D0DF10C0CACE80F000FCDACE820
:1076B0000F000FCDACE80F0095E80F0002ADF768A2
:1076C000D6F818808CE80F0000232B6021E02B6C8B
:1076D00073614FF4F07229467AA803F031F93369E7
:1076E0007AAA314650469847889BCDE900582146F2
:1076F0006B648146334632460120B8470446E8B9F8
:107700004FF4F0727AA9284603F01AF9B9F1080F7C
:107710001BD1296C3046FFF71BFF09345FFA84FA4E
:1077200081460028D3D0AB6B4AF01001CDE9005858
:1077300032466B6401203346B84708B14FF009095F
:1077400048460DF5727DBDE8F087B9F1070FF5D118
:107750002046296CFFF77EFF03A800F089FB00BFDD
:10776000406C7047F0B5CB6B0B640E1D0F460546A1
:107770000FCEF9B001AC0FC40FCE0FC40FCE0FC4A3
:1077800096E80F004FF0FF3684E80F00009606E001
:107790002B696A46294698470828044608D110995B
:1077A0002846FFF7D5FE0028F2D0092079B0F0BDB9
:1077B0006846FFF71BFF062CF7D139462846FFF72E
:1077C0004BFF00BF30B4DD6BC160826119461D64A0
:1077D000002230BC5EE700BF70B5C66843690B6429
:1077E000AEB903690A4604460D4601460220984791
:1077F000072805D008280FD129462046FFF72CFF7F
:107800003046296CFFF726FF281D00F031FB0122CE
:10781000FFF740FF28F0DEFB28F0DCFBC2681AB15E
:10782000CA6B0A64002235E79CE700BF704700BFBF
:10783000836801460BB1012018477047012912D017
:1078400009D873B90F2A0CD800EB82021846536886
:10785000009A136070470339012994BF0120022068
:107860007047022070470846704700BF10B584B0CB
:10787000002303AC0A4600941946FFF7DFFF039884
:1078800004B010BD012912D009D873B90F2A0CD841
:1078900000EB8200009A1268426018467047033974
:1078A000012994BF0120022070470220704708463A
:1078B000704700BF10B584B0002303AC039200945E
:1078C0000A461946FFF7DEFF04B010BDF0B5D36BD2
:1078D0001364151D8C4606460FCDADF50F7D17AC14
:1078E0000FC40FCD0FC40FCD0FC495E80F004FF09C
:1078F000FF3784E80F006546169710E0FFF7DAFFC0
:10790000294616A8B047034616AA6946082083B937
:10791000049B9847052804460CD0092809D02699CD
:107920006846FFF715FE03466A460C2116A8002B91
:10793000E4D0092416A8FFF759FE20460DF50F7D67
:10794000F0BD00BF2DE9F04FCC6C89B00D4654F866
:10795000041B0694174600F003081E46002B79D03E
:107960000B0CDAB209048DF81D30022304EB8204FB
:1079700005918DF81C302B6DB8F1020F08BFAC6B70
:1079800013F001030CD0384605A900F073FB18B9B9
:10799000082009B0BDE8F08F092009B0BDE8F08FDC
:1079A000D4F800A0BAF1000FEDD0019300F0080365
:1079B0000293022E4AD0B4F800A0B4F80290043426
:1079C000AA6C29F0010B0F2138469344FFF74EFFB4
:1079D000834539D82AF001025A44824294BF0020DC
:1079E00001204FEA490303F002030AF0010A43EAC7
:1079F0000A03012B49D0022B32D0002BCCD1B8F195
:107A0000000F02D0002840F0CD800434D4F800A04C
:107A1000BAF1000FCDD105A9384600F02BFB0028A4
:107A2000BAD1019B002BB3D00F213846FFF71EFFC0
:107A30000E2102463846FFF73DFF38466A4A0F21BD
:107A4000FFF738FF0720A8E70020CAE7D4F8049022
:107A50000834B5E7090203230591ADF81C308AE725
:107A6000236823F0004BB8F1000F45D128B1029AEA
:107A7000002A5CD0BBF1000F74D0002B00DA043474
:107A80000BF1010B04EB8B04C0E7B8F1000F19D127
:107A9000B0B1D4E90023991C4FEAD2723FF47CAF15
:107AA00005F158010133049100F09080201DFFF78B
:107AB000C9FD04AB0146284626F0EAFE00285BD14A
:107AC0000834A3E70D213846D5F82090FFF7CEFE05
:107AD0008145F5D1AB6A9C42F2D12046FFF7ECFC20
:107AE0000F2102463846FFF7E5FE38462A460021B8
:107AF000FFF7E0FE072050E70D213846D5F820902B
:107B0000FFF7B4FE814501D02368B6E7AB6A9C421B
:107B1000FAD104220021C5E90B12A318C5F828B038
:107B20006B6323688B4259DB01230193A8E705F1BE
:107B30005803CDF80C8004F1040AB04691461E4665
:107B40000DE00496FFF77EFD04AB014600222846B7
:107B500026F09EFE09F101090AF1040AE8B9D945A7
:107B60005046EED138460D21FFF780FE049B286277
:107B7000C5E90934062010E781460D213846FFF794
:107B800075FEB9F1020F286225D12B46049A43F8FD
:107B90002C2F6B62AC620620FFE646462368DDF8B8
:107BA0000C806AE72046FFF787FC04340246AC638A
:107BB0002846144626F0CAFE00283FF4EDAE3846AB
:107BC00022460F21FFF776FE0720E6E638460D2114
:107BD000FFF74CFE2862049B6B62DBE70BF10100B0
:107BE00004EB80007AE700BF99F002080023A9E6C1
:107BF0000123A7E60223A5E62DE9F0430646C3B01C
:107C000015461C46042900F2B980DFE801F09A53BA
:107C1000B7290300002C40F0B180102A00F2AE809A
:107C20000368D80600F1F38020AF384600F092F9DF
:107C3000B06B0023012404FA03F22A42014604D067
:107C400051F8042B47F8232008460133042BF2D1C6
:107C5000B063384600F074F9002043B0BDE8F0830B
:107C6000032C40F08B8094B204EB1243102B4FEAAC
:107C7000124500F2838003681F0700F1D08020AF17
:107C8000384600F03BF907EBC501B56B54B10B4624
:107C9000E81A01EBC401E4001A5843F8042B8B42A4
:107CA000FAD125443846B56300F006F9002043B008
:107CB000BDE8F083012C4FEA124895B25AD0052C4A
:107CC0005CD108EB0509B9F1200F57D8B8F10F0FB7
:107CD00077D9A946002D40F08880B36B6DB320AFF3
:107CE0004FF0000907EBC807043F03EBC50553F845
:107CF000041B47F8041FAB42F9D1B9F1000F0FD0B4
:107D00006F464146102938BF102107EBC101843965
:107D100003EBC90553F8040B41F8040FAB42F9D14A
:107D2000012C00F08480B8F10F0FB56345D9B9F18B
:107D3000000F02D0684600F0B7F8002043B0BDE85D
:107D4000F083DCB9876B2346012094B206F1040C62
:107D500000FA03F22242394604D051F8042B4CF8C1
:107D600023200F460133102BF2D115F40050E4D13B
:107D7000B76304E008EB0503102B03D9022043B0DE
:107D8000BDE8F083B8F10F0FF8D83368DA0706D5ED
:107D9000304623F0030340F8483B00F079F820AF69
:107DA000384600F075F8B36B002D99D11D460435A7
:107DB000B563384600F068F8BFE720A800F06CF81B
:107DC000B5E7B9F1100F40D9A9F110093368D90707
:107DD00008D523F00103304643F0020340F8483B46
:107DE00000F05EF8B9F1000F32D033685A0720D4A2
:107DF000B8F10F0F25D96F463846C8F1100500F0CD
:107E000057F8002DB36B7FF77CAF20AF6AE723F004
:107E10001003336006F5E87000F09CF804E723F0E7
:107E20000803036000F5A87000F068F827E720AFAA
:107E3000BDE7304623F0040340F8D03B00F038F8AB
:107E4000D6E720A800F02CF8D5E74FF00009BDE7F1
:107E5000B8F10F0F3FF641AF20AF384600F020F8E1
:107E6000B36B002D7FF43CAF384600F015F864E7A3
:107E700000F1340191E838009C46A6464CF8045DB8
:107E800090E8FF0FE54600BD90EC210B704700BF66
:107E900080EC210B704700BF90EC200B704700BFB7
:107EA00080EC200B704700BFD0EC200B704700BF68
:107EB000C0EC200B704700BFF0EC0201F0EC0211A7
:107EC000F0EC0221F0EC0231F0EC0241F0EC025156
:107ED000F0EC0261F0EC0271F0EC0281F0EC029146
:107EE000F0EC02A1F0EC02B1F0EC02C1F0EC02D136
:107EF000F0EC02E1F0EC02F1704700BFE0EC0201AF
:107F0000E0EC0211E0EC0221E0EC0231E0EC024195
:107F1000E0EC0251E0EC0261E0EC0271E0EC028185
:107F2000E0EC0291E0EC02A1E0EC02B1E0EC02C175
:107F3000E0EC02D1E0EC02E1E0EC02F1704700BFBE
:107F4000B0FC0181B0FC0191B0FC01A1B0FC01B119
:107F5000704700BFA0FC0181A0FC0191A0FC01A121
:107F6000A0FC01B1704700BFEC4600B52DE9005000
:107F70002DE9FF1F4FF000032DE90C0001A9FFF7C9
:107F8000F1FBDDF840E012B0704700BFEC4600B5F1
:107F90002DE900502DE9FF1F4FF000032DE90C00E3
:107FA00001A9FFF719FCDDF840E012B0704700BFEF
:107FB000EC4600B52DE900502DE9FF1F4FF00003FE
:107FC0002DE90C0001A9FFF729FCDDF840E012B013
:107FD000704700BFEC4600B52DE900502DE9FF1FAA
:107FE0004FF000032DE90C0001ABFFF7EBFBDDF8D0
:107FF00040E012B0704700BFEC4600B52DE90050DC
:108000002DE9FF1F4FF000032DE90C0001AAFFF737
:108010005DFCDDF840E012B0704700BF027A7AB92B
:10802000437AA3B14268013B10B443721368032141
:10803000141D01721A024460026010BC180E7047D1
:108040000368013A02721A020260180E7047B020EB
:10805000704700BF00B585B003AA002300921946FF
:108060000C22FFF7EBFB039805B05DF804FB00BFA3
:10807000F0E700BF2DE9F043054685B00E464FF00E
:1080800000083046FFF7CAFFB028044600F0B2806F
:10809000070620D500F0F003802B4DD0902B36D072
:1080A000A02B60D0B02B74D0C02B00F08B8000F0E0
:1080B000F803D02B0BD100F00702013242F400226A
:1080C000052301212846FFF797FD0028D9D0092074
:1080D00005B0BDE8F0830DF10C09002319468700B7
:1080E000CDF800900D222846FFF7A8FBFFB2039BB6
:1080F000CDF80090043760064CBFDF1BFF1800234B
:1081000019460D2228460397FFF7BCFBB9E700F09C
:108110000D030D2BDBD003AF002300F00F02194637
:1081200000972846FFF78AFB0023009719460D2287
:108130002846FFF7A7FBA4E73046FFF76FFF2402AE
:108140002043B0F5004FC2D004010023A2B219466B
:108150002846FFF751FD0028B9D114F4004F18BF8D
:108160004FF001088DE7C24302F007034FF47F622E
:108170001A41010702F47F624FF0000348BF42F446
:10818000804219462846FFF737FD00283FF479AFB3
:108190009DE7B12833D0B22800F08B80B32839D0C6
:1081A00000F0FC03B42B92D000F00702013201234F
:1081B00042F4002219462846FFF71EFD00283FF42E
:1081C00060AF84E7C62842D0C7284CD000F0F8033F
:1081D000C02B5BD0C82860D0C9287FF478AF304668
:1081E000FFF71CFF020300F00F0002F470220130C1
:1081F000024365E7B8F1000F18D0002068E7304669
:10820000FFF70CFF024600283FF461AF10F0F003C7
:10821000D0D05CE73046FFF701FF010300F00F000C
:1082200001F47021421C01230A43C3E703AC434617
:108230000E22414600942846FFF700FB0094284692
:1082400043460F224146FFF71DFB404640E73046BC
:10825000FFF7E4FE010300F00F0001F47021421C5F
:1082600003230A43A6E73046FFF7D8FE024600285C
:108270003FF42DAF10F0F0037FF429AF042128461E
:10828000FFF7BAFC00283FF4FCAE20E700F00F0235
:108290000132032342F420228CE73046FFF7BEFE72
:1082A00000F0F00200F00F031032013343EA023213
:1082B00006E700230DF10C090D221946CDF80090B8
:1082C0002846FFF7BBFA3046FFF7A8FE02064FF03C
:1082D00002070CD5039B00F07F00B84003443046F2
:1082E0000393FFF79BFE030607F10707F2D4039BF6
:1082F000CDF8009000F07F0403F50172BC4000232C
:10830000144419460D2228460394FFF7BBFAB8E639
:1083100010B5C26C84B0536803248DF80C401B0266
:1083200002F108040846D279019301A902948DF85C
:108330000D20FFF79FFE04B010BD00BF08B5FFF78A
:1083400097FE806C08BD00BF08B5FFF791FEC06CBA
:10835000C379023300EB830008BD00BF704700BF44
:10836000034B4FF4806200201A8000F09FBB00BFD7
:10837000CC0D002008B5122024F000F860B90121CE
:10838000012023F0F6FF054B4FF400621A80002015
:10839000BDE8084000F08ABB0021F1E7CC0D0020C9
:1083A00000B51648A1B001F087FB042824D8DFE807
:1083B00000F0031B1D1F21001149684602F0EAFF6F
:1083C000104A1149114823F03DFF6A4610490F48F1
:1083D00023F038FF0F490D4823F034FF642023F0C9
:1083E00047FD21B05DF804FB0B49E6E70B49E4E7E4
:1083F0000B49E2E70B49E0E70B49DEE7D00D00202F
:10840000F4010308450203084A020308B85B002090
:108410005002030826060308FB0103080A020308AA
:108420001F020308320203083B0203082DE9F84F3C
:10843000344A35493548DFF8E4A023F003FF3449D6
:10844000324823F0FFFE3349304823F0FBFE64201E
:1084500023F00EFD4FF4FA6023F00AFD294A2A4961
:108460002A4823F0EFFE2C49284823F0EBFE294947
:10847000264823F0E7FE642023F0FAFC274801F0A9
:10848000BBFA23F0DAFD4FF0000B054641F28838C5
:108490004FF00009504601F01EFB044600BB23F0DC
:1084A000CCFD461B6BEB4B07B04579EB070312DAAB
:1084B000144A1549154823F0C5FE1949134823F0FD
:1084C000C1FE1449114823F0BDFE642023F0D0FC06
:1084D0002046BDE8F88F4FF4FA7023F0C9FCD9E7C5
:1084E000084A0949094823F0ADFE0E49074823F020
:1084F000A9FE0849054823F0A5FE642023F0B8FC36
:108500000120E6E7450203084A020308B85B0020A1
:108510006102030826060308C2020308D00D0020EA
:10852000D2020308F80203082DE9F0473E4801F0A3
:1085300015FA23F082FD4FF0000A054642F210784A
:108540004FF00009384801F0C6FA044600BB23F09A
:1085500074FD461B6AEB4A07B04579EB070312DA54
:108560003249334A334823F06DFE3349314823F012
:1085700069FE32492F4823F065FE642023F078FC21
:108580002046BDE8F0874FF4FA7023F071FCD9E77C
:10859000274A2649274823F055FE2949254823F034
:1085A00051FE2649234823F04DFE642023F060FC51
:1085B0001D48042101F0ADFAFFF738FF044630B939
:1085C0001A491B4A1B4823F03DFE1E49CEE70121F4
:1085D000154801F087FA144801F0B1FA144A13491A
:1085E000144823F02FFE1849124823F02BFE13499C
:1085F000104823F027FE642023F03AFCFFF7D0FE5A
:1086000000211C2023F09EFE0021122023F09AFE60
:108610000E4903221C2023F078FE0D49022212206D
:1086200023F073FEACE700BFD00D00204A02030820
:1086300045020308B85B002005030308260603086B
:108640001D03030857030308770303086183000829
:108650007583000838B51E4A1E4904461E4823F09B
:10866000F1FD1E491C4823F0EDFD1D491A4823F079
:10867000E9FD642023F0FCFBFFF792FE1948ACB142
:1086800001F072FA012804460ED1164801F057FA9B
:10869000144801F071FA012804D1124801F04FFA90
:1086A0000234E4B2204638BD0024F1E701F00CFAB0
:1086B0000D4D044618B101232B700424F2E709483C
:1086C00001F03DFA2B78002B18BF0524EAE700BF24
:1086D000450203084A020308B85B0020920303081E
:1086E00026060308D00D0020A50D00202DE9F74334
:1086F0003C4A3D4980463D4823F0A4FD3C493B4867
:1087000023F0A0FD3B49394823F09CFD642023F071
:10871000AFFBFFF745FE384801F098FA07463648A8
:1087200001F0A2FA00210646334801F0ABFA00211D
:108730000546314801F0B8FA0446B8F1000F16D0EA
:1087400001222B212D4801F071F82D492846FEF712
:1087500041FB2C210246294801F0DCF8284920463B
:10876000FEF738FB2D210246244801F0D3F81D4ABC
:108770001D491E4823F066FD3846FDF7CDFE8046B4
:1087800028468946FDF7C8FE4B464246CDE9000122
:108790001C49164823F056FD1649144823F052FD93
:1087A000642023F065FB0F4A0F49104823F04AFD6F
:1087B0003046FDF7B1FE064620460F46FDF7ACFEFB
:1087C0003246CDE900013B460F49084823F03AFD07
:1087D0000849064823F036FD642003B0BDE8F043A5
:1087E00023F046BB450203084A020308B85B002099
:1087F0009E03030826060308D00D0020C40D0020A8
:1088000000002041AA030308BD03030808B50E4970
:108810000E4823F01FFE0D490D4801F0C7FB88B13B
:108820000C4A0D490D4823F00DFD0D490B4823F06E
:1088300009FD0C49094823F005FD642023F018FBCD
:10884000002008BD0120FCE7A08601004C5B002051
:10885000A80D0020D10303084A020308B85B0020DA
:10886000D503030826060308F7B53E4A3E493F48AC
:108870003F4C23F0E7FC3F493C4823F0E3FC3E49F2
:108880003A4823F0DFFC642023F0F2FA204601F09E
:10889000BBFB637A002B51D1204601F063FA0646F8
:1088A000204601F03BFA2F4A2F4905462F4823F076
:1088B000C9FC3046FDF730FE304B0022FDF784FE48
:1088C000FEF732F900B2FEF731FAFDF725FE2B4B29
:1088D0000022FDF7A3FF06460F4628462946FEF76D
:1088E00071F9FEF73DFC80B2FEF71CFAFDF714FEAD
:1088F000234B0022FDF768FE3B463246CDE90001DE
:1089000020491A4823F09EFC1B49184823F09AFC82
:10891000642023F0ADFA204601F000FA022102465D
:10892000194801F005F8204601F01CFA02461648E5
:10893000032103B0BDE8F04000F0F3BF094A0A4943
:108940000A4823F07FFC1149084823F07BFC0A49C0
:10895000064823F077FC642003B0BDE8F04023F024
:1089600087BA00BFD10303084A020308B85B00209E
:10897000A80D0020F0030308260603080000244089
:108980000000E03FFE030308C40D00200E040308AE
:10899000014801F0B7B900BFA80D0020F7B50446A3
:1089A000164A17491748184F164E23F04BFC94F9F6
:1089B0000C300193B4F90A3022781449009311481D
:1089C000637823F03FFC12490E4823F03BFC6420FF
:1089D00023F04EFA0025237AAB4207DD636839465F
:1089E0005A5D304623F02EFC0135F4E7094905486D
:1089F00003B0BDE8F04023F0EEBB00BF2304030842
:108A00004A020308B85B00204B040308290403084A
:108A1000260603082506030838B50446E8B11A4DB2
:108A20002B780133DBB2042B2B7016D1174A18496F
:108A3000184823F007FC1849164823F003FC17498F
:108A4000144823F0FFFB642023F012FA144823F0AB
:108A5000FAFA144B187000232B700C4A0C490D487D
:108A600023F0F0FB224610490A4823F0EBFB0B49A8
:108A7000084823F0E7FB642023F0FAF9BDE838400A
:108A80000021012023F075BCBC0D00205004030818
:108A90004A020308B85B00205604030826060308B0
:108AA000505C0020CF0D00206E040308F7B59048FD
:108AB000904E914D00F0FFFD904823F0E0FD012124
:108AC00002468B4800F03BFF337873B12B889BB292
:108AD000B3F5006F09D02B889BB2B3F5806F04D03B
:108AE000834800222B2100F0A1FE2B889BB2B3F516
:108AF000006F40F0A780824A8249834823F0A2FB9E
:108B00008249814823F09EFB81497F4823F09AFBEC
:108B10000024642023F0ACF920462C80FFF79AFD56
:108B200004280AD0052828D0012333707549744AD7
:108B3000754823F087FB77499CE0714A7149724878
:108B400023F080FB7449704823F07CFB70496E4829
:108B500023F078FB642023F08BF92046FFF7C6FD55
:108B600001222B216248347000F060FE6B482146E0
:108B700003B0BDE8F04023F0BFBD614A61496248DF
:108B8000674D23F05FFB67495F4823F05BFB60495B
:108B90005D4823F057FB642023F06AF90127012088
:108BA000FFF7A4FD3770604E2A7851482E2100F05F
:108BB0003DFE32784E482C702F2100F037FE2346C0
:108BC00042F210723946554834702C7023F08AFDF9
:108BD000564A524812682346214623F083FD544BDF
:108BE0001B780BB1FFF740FE454A4649464823F043
:108BF00029FB3F4800F062FD4E490246424823F0FF
:108C000021FB4349404823F01DFB642023F030F949
:108C1000374800F053FD0446354800F051FD464BFF
:108C20001B780093454B024621461B78444823F0AD
:108C30001BFA334A3349002855D0334823F002FB4E
:108C4000404917E02B889BB2B3F5806F3AD10024DE
:108C500001202C80FFF7FEFC022818D0032820D02A
:108C600001282AD1304B27491870254A264823F07D
:108C7000E9FA3549244823F0E5FA2549224823F04A
:108C8000E1FA642003B0BDE8F04023F0F1B8244BD2
:108C90001C491D4801221A70194A23F0D3FA2B49A6
:108CA000E8E7214A17491848012313701C4A13703A
:108CB000134A23F0C7FA2649DCE72146012023F0B6
:108CC00058FB33E70E4A0F490F4823F0BBFA2149FE
:108CD0000D4823F0B7FA0E490B4823F0B3FA64208D
:108CE00023F0C6F87BE7084823F0ACFA1A49C1E73D
:108CF000C40D002004000020CC0D0020495C0020A1
:108D0000740403084A020308B85B002078040308CF
:108D100026060308B7040308890403084D5C0020F5
:108D2000A60D0020A1040308A40D0020C00D002002
:108D3000CE0D002036050308050000204600002067
:108D4000505C002044050308CF040308EA0403082C
:108D500004050308290503084D05030810B504465A
:108D600000F0A2FC204610BD10B50446B8B115486D
:108D700023F069F9144B187018BB144A14491548AC
:108D800023F060FA1449134823F05CFA13491148A0
:108D900023F058FABDE81040642023F069B803219D
:108DA0000F4823F0E2F92146012023F0E2FA0D4BAF
:108DB0001A6832B1234621460B48BDE8104023F023
:108DC00091BC10BD505C0020CF0D0020570503085A
:108DD0004A020308B85B00205C0503082606030866
:108DE0005F5C0020C00D00204D5C002070B5814903
:108DF000814823F05CF981497F4823F068F9804974
:108E00007D4823F05CF97F48012123F0BFFA78B94F
:108E10007D4A7E497E4823F015FA7E497C4823F03E
:108E200011FA7D497A4823F00DFA642023F020F8E6
:108E30000121002023F086FA0121002023F099FA75
:108E40000121084623F07EFA0121084623F091FA19
:108E50000121082023F076FA0021082023F089FA66
:108E6000032306224FF4E13169486C4E6C4D23F028
:108E700079FC41F2883022F0FBFF634A6349644881
:108E800023F0E0F96749624823F0DCF96249604861
:108E900023F0D8F9642022F0EBFFFFF745FB5A4A94
:108EA0005A4904465A4823F0CDF9002C14BF3246E3
:108EB0002A465D4956485D4C23F0C4F9564954484A
:108EC00023F0C0F9642022F0D3FF4F4A4F495048A5
:108ED00023F0B8F956494E4823F0B4F94E494C48AE
:108EE00023F0B0F9642022F0C3FFFFF78FFC464A5D
:108EF00046492070464823F0A5F922784A4944485B
:108F0000002A14BF32462A4623F09CF942494048C1
:108F100023F098F9642022F0ABFF3B4A3B493C48E0
:108F200023F090F9434A4449394823F08BF93A49F0
:108F3000374823F087F9642022F09AFF324A3349F8
:108F4000334823F07FF93D49314823F07BF932491A
:108F50002F4823F077F9642022F08AFF0021084689
:108F600023F007FA00F0C8FA022000F06FFB344A41
:108F700034480123002123F0ABFB314A3148002360
:108F8000012123F0A5FB304823F0DFF82F4B1E4AC8
:108F900018701E491E4823F055F92B4823F0D5F8C8
:108FA0002B4B2C4A2C49002818BF1A46184823F08E
:108FB00049F91949164823F045F9642022F058FF71
:108FC0000D4823F040F8254B187088B90E4A0F4918
:108FD0000F4823F037F922490D4823F033F90E49A1
:108FE0000B4823F02FF9BDE87040642022F040BF09
:108FF00070BD00BF9D890008505C0020198A0008E0
:10900000698D0008095C0020710503084A02030805
:10901000B85B0020750503082606030865050308EC
:109020001C04030892050308A6050308CE0D0020C2
:10903000AE05030806000020C1050308D505030896
:10904000AD8A00084D5C0020585C0020050000201F
:10905000641503086D050308F8050308CF0D00200B
:1090600010060308014823F04FBB00BF4E5C0020F0
:1090700010B5064CFF21204600F00AFB2046044AAA
:109080000449BDE8104001F013BC00BFC40D00202E
:10909000000000205D8D000830B599B01446B74936
:1090A0000EA822F082FF0023CDE91433CDE9163358
:1090B000636E012B40F0F7812068B149FDF760F83D
:1090C0000446002840F0EF81AE49AF4823F0B8F8DD
:1090D000AE4911A823F0CDFA11A90EA822F077FF0E
:1090E00011A822F01CFF0EA822F09BFF0E9AA8499F
:1090F000A54823F0A7F8A74911A823F0B4FA119ABC
:10910000A549A14823F09EF811A822F008FFA34B1F
:10911000A3491A689C484FF47A73B2FBF3F223F028
:1091200091F8A04823F03EF89F4BA04953F8202027
:109130000546954823F086F8012D40F063819C4850
:1091400023F011F89B4B9C4A9C49002808BF1A4603
:109150008D4823F077F89A4823F018F89949024689
:10916000894823F06FF8984822F0F6FF00287ED057
:109170009649854823F064F8082214A9944822F0FF
:10918000D2FF9DF8573005939DF8563004939DF813
:10919000553003939DF8543002939DF8533001935A
:1091A0009DF852309DF850208A49009376489DF8EA
:1091B000513023F047F8082214A9874822F08FFF86
:1091C0009DF8573005939DF8563004939DF855301F
:1091D00003939DF8543002939DF8533001939DF80A
:1091E00052309DF850207D49009367489DF85130DA
:1091F00023F028F8102214A9794822F079FF9DF86D
:109200005F300D939DF85E300C939DF85D300B93AD
:109210009DF85C300A939DF85B3009939DF85A30B5
:1092200008939DF8593007939DF8583006939DF8A0
:10923000573005939DF8563004939DF855300393AD
:109240009DF8543002939DF8533001939DF85230AD
:1092500000939DF850209DF8513062494A4822F011
:10926000F1FF0EA822F05BFE204619B030BD5E492A
:10927000454822F0E5FF14A910225C4822F041FF86
:109280009DF85F300D939DF85E300C939DF85D3036
:109290000B939DF85C300A939DF85B3009939DF821
:1092A0005A3008939DF8593007939DF8583006932B
:1092B0009DF8573005939DF8563004939DF855302E
:1092C00003939DF8543002939DF8533001939DF819
:1092D00052309DF85020009345499DF851302A485E
:1092E00022F0B0FF14A91022424822F025FF9DF879
:1092F0005F300D939DF85E300C939DF85D300B93BD
:109300009DF85C300A939DF85B3009939DF85A30C4
:1093100008939DF8593007939DF8583006939DF8AF
:10932000573005939DF8563004939DF855300393BC
:109330009DF8543002939DF8533001939DF85230BC
:109340009DF8502000932C499DF851300E4822F092
:1093500079FF14A90422294822F0DCFE9DF853303D
:1093600001939DF8523000939DF850209DF85130A4
:109370002349054822F066FF73E700BF270603086C
:10938000343C030833060308B85B0020305C00203F
:10939000420603080C5C00204F060308C00D0020A5
:1093A0005D060308735C0020480000206F06030878
:1093B0005B5C002028060308A51403088106030847
:1093C000715C00208E0603085A5C00209B0603088F
:1093D000555C0020A5060308515C0020D106030857
:1093E000525C0020FD06030849070308535C002077
:1093F00052070308575C00209F070308545C0020B5
:10940000EB070308002D34D12849294822F018FF22
:10941000284822F0CBFE28490246254822F012FFB8
:10942000264822F0C5FE26490246214822F00AFFBE
:10943000244822F0BFFE244902461D4822F002FFC4
:10944000224822F0B9FE22490246194822F0FAFECB
:10945000204822F0B3FE20490246154822F0F2FED1
:109460001E4822F0ADFE1E490246114822F0EAFED7
:10947000F7E61C490E4822F0E3FE0E4822F096FE65
:109480000D4902460A4822F0DDFE174822F09AFEF6
:1094900016490246064822F0D5FE154822F094FEF1
:1094A00014490246E1E70224DBE600BFB0280308C6
:1094B000B85B0020745C002008080308755C00207D
:1094C00019080308765C002023080308775C002055
:1094D0002D080308785C002037080308795C002019
:1094E0004E0803085E0803087C5C00206708030838
:1094F0007D5C00207608030837B50B4B0B4C0093BE
:109500000B4B0C4A032519460195204623F0BFF862
:10951000094B0093094B0A4A01951946204623F04E
:10952000B6F803B030BD00BF7D9500084A5C00204E
:10953000860803088F08030899900008DB080308D1
:10954000E20803081FB5014602294FF00000CDE9EB
:10955000010003900AD1074B07481B680093AA2318
:109560008DF804306A46052323F0A8F805B05DF8AD
:1095700004FB00BFC00D00204B5C0020536E012B8C
:1095800070B50E4621D1156827492846FCF7F8FD2D
:109590000446E0B12846FCF7FDFD0024844228D0B3
:1095A0002B5D303B092B22D9204A2149214822F04A
:1095B00049FE21491F48224622F044FE1F491D480A
:1095C00022F040FE642022F053FC02240DE03146DC
:1095D000184822F016FE1A4B1A491A6815484FF41B
:1095E0007A73B2FBF3F222F02DFE204670BD0134F7
:1095F000D4E70A220021284601F050FF104C4FF416
:109600007A73434300211048236023F075F82268E1
:1096100022B100230C48194623F064F80220FFF71A
:1096200091FF0024E1E700BF343C0308010903086F
:109630004A020308B85B002008090308260603084D
:10964000C00D0020F90803084D5C002030B5022849
:1096500085B0054602D0002005B030BD0146052387
:1096600009486A4623F020F80028F4D09DF8043019
:10967000AA2B064B05D0002428461C60FFF762FF8A
:10968000E9E7009A1A60E7E74B5C0020C00D002074
:1096900038B50446002508462171A57101F040F94E
:1096A00065712060204638BD10B50446006801F0A1
:1096B0003FF9204610BD0023437170474079704741
:1096C000006870478E294ED8702903D8032943D8E3
:1096D0000120704771391D2945D801A353F821F0A5
:1096E000D196000867970008D1960008D196000827
:1096F000D1960008D196000867970008D196000817
:10970000D1960008679700086797000867970008D8
:10971000D19600086797000867970008D19600085F
:1097200067970008D1960008D1960008D1960008E6
:10973000D1960008D1960008D1960008D19600086D
:109740006797000867970008679700086797000801
:1097500067970008D1960008A1F1640004288CBF27
:109760000020012070470020704700BF882918D8CA
:10977000702906D803290FD8012994BF00200120A1
:10978000704771390123C9B203FA01F1064B19423E
:1097900014BF012000207047A1F1670358425841CF
:1097A00070470020704700BF0101A000F8B50446D3
:1097B0000D461E46FFF786FF10B90223A371F8BDC0
:1097C0008E2D98BF174B607998BF595D94F804C0EF
:1097D00094BF154B002100EB010707F1010794BF6F
:1097E00033F815300B46674503DB0123A3710020D6
:1097F000E5E773432668471C677132546279206835
:10980000561C66718554002201326079D5B28D42B2
:10981000084404D82568801A2B541B0AF4E7C0B208
:109820006071CCE723090308B209030808B51346A1
:109830000A466621FFF7BAFF08BD00002DE9F84F80
:1098400004460E4690461D46FFF73CFF18B902231A
:10985000A371BDE8F88F8E2E98BF2C4B94F805901D
:109860009CBF9F5D2A4B227994BF33F816B0002726
:1098700009EB070303F1010388BFBB46934203DBF7
:109880000123A3710020E4E700212846FDF740FCF6
:109890000021B0F1000A284618BF4FF0010AFDF779
:1098A00037FC08B105F100455846FDF73BFA29465B
:1098B000FDF790FAFDF754FC314605462046FFF7C8
:1098C00055FF40B1BAF1000F05D0FA0001239340D3
:1098D000581E05405D1B236809F10102627103F8FF
:1098E000098063792268591C6171D65400220132C3
:1098F0006379D1B2B9423B4404D821689B1ACD5454
:109900002D0AF4E7D8B26071A3E700BF230903086A
:10991000B209030808B513460A460221FFF78EFF75
:1099200008BD08B513460A466721FFF787FF08BD43
:1099300008B513460A466821FFF780FF08BD08B541
:1099400013460A467421FFF779FF08BD0022C0E9DB
:109950000022C0E90222027470470000014822F090
:1099600065BD00BF4C5B00200148FFF7EFBF00BFA3
:10997000D00D00202DE9F8431B4DDFF878901B4CEB
:1099800088462846494617461E4622F059FC20467E
:10999000552122F08FFD4146204622F02FFD0A205E
:1099A00022F066FA3946204622F028FD0A2022F0ED
:1099B0005FFA3146204622F021FD0A2022F058FAB3
:1099C0000121204622F082FD09490446284622F062
:1099D00002FCE1B228460A2222F08DFC49462846C4
:1099E000BDE8F84322F02CBCB85B00204C5B0020A3
:1099F000E20A0308D00A0308022303221021FFF71A
:109A0000B9BF00002DE9F041264C274E8846174685
:109A10002649204622F014FC2549204622F0DBFB93
:109A200010224146204622F064FC1022394620468E
:109A300022F061FC5521304622F03CFD4146304683
:109A400022F0DCFC0A2022F013FA3946304622F0DC
:109A5000D5FC0A2022F00CFA0021304622F036FD17
:109A60001449C5B2204622F0B6FB0A2229462046F8
:109A700022F041FC002DCBD10B480B4C012255218B
:109A800022F012FD204622F099FC0028FADD06485B
:109A900022F09EFC05490446024822F0D1FBE0B2C8
:109AA000BDE8F081B85B00204C5B0020EB0A0308A6
:109AB000FC0A0308040B030808B500221021FFF775
:109AC000A1FF00F0070008BD08B5FFF7F5FF431E32
:109AD0005842584108BD08B5FFF7EEFFB0FA80F0D4
:109AE000400908BD012970B505460C4610D804226E
:109AF0001021FFF787FF031144EA4303DB002846E8
:109B000003F0F803BDE8704004221021FFF732BFD4
:109B100070BD042970B505460C460FD804221021EB
:109B2000FFF770FF00F00F0343EA04132846DBB28F
:109B3000BDE8704004221021FFF71CBF70BD10B5B6
:109B4000022204461021FFF75DFF0023237410BD9D
:109B500010B5022210210446FFF754FF00F0030362
:109B6000207C1843207410BD10B50446FFF7F0FFA9
:109B7000207CC0F3400010BD10B50446FFF7E8FF9D
:109B8000207C00F0010010BD2DE9F0412A4C2B4E45
:109B9000884617462A49204622F052FB294920468A
:109BA00022F019FB10224146204622F0A2FB10228F
:109BB0003946204622F09FFB5521304622F07AFCA0
:109BC0004146304622F01AFC0A2022F051F939466B
:109BD000304622F013FC0A2022F04AF900213046D8
:109BE00022F074FC1849C5B2204622F0F4FA0A2289
:109BF0002946204622F07FFB002DCBD10F480F4C89
:109C00000222552122F050FC204622F0D7FB0128E9
:109C1000FADD0A4822F0DCFB0546084822F0D8FBB2
:109C2000044607490448E4B222F00AFB44EA05204E
:109C300080B2BDE8F08100BFB85B00204C5B002023
:109C4000110B0308FC0A0308040B030808B50022E3
:109C50002021FFF799FFFDF765F80249FDF76EF93E
:109C600008BD00BF00007A4408B502222021FFF79A
:109C70008BFFFDF757F80249FDF760F908BD00BFFB
:109C800000007A44042908B50AD83031C9B2082244
:109C9000FFF77AFFFDF746F80249FDF74FF908BDD7
:109CA0000020FCE700007A44042908B50AD83031C6
:109CB000C9B20A22FFF768FFFDF734F80249FDF741
:109CC0003DF908BD0020FCE700007A440368C9B2F2
:109CD0001B68184738B504460D460068702122F00D
:109CE000E9FB290A2068FFF7F1FFE9B22068FFF7D6
:109CF000EDFF2068012122F0E9FBC0B2003818BF57
:109D0000012038BD044A42600122027200224281D1
:109D10000273C28102617047245C000108B5C089EA
:109D2000FDF700F80349FDF709F90349FDF752F87B
:109D300008BD00BF00FF7F470000C84208B5FCF720
:109D4000F1FF0549FDF7FAF80449FDF743F8044926
:109D5000FCF736FF08BD00BF00FF7F4700002F4320
:109D600000003442008AFFF7E9BF704710B50C4687
:109D7000417281792046FFF7F8FF204610BD38B5C3
:109D80000D46002141810173C181016145728179D4
:109D90002846FFF7EAFF284638BD000038B5012302
:109DA0000446037201B1C3714BF298012046FFF7DC
:109DB00091FF044A60720546A179E123FFF7D5FFC0
:109DC000284638BD230B030838B5C3790021054662
:109DD00081715BB901232B7200242046064AA979C0
:109DE0006C724E23FFF7C1FF204638BDFFF7D6FF48
:109DF00004460028EED0F0E7230B030870B50E46AA
:109E000043F217510546FFF765FF044600B9287273
:109E10000EB10023EB71F02022F03FF82046044AF7
:109E2000A9796C72F123FFF7A0FF204670BD00BF37
:109E3000230B030838B501238371037A054653B910
:109E400000242C722046074AA9796C723F23FFF741
:109E50008CFF204638BD0021FFF7D0FF04460028C4
:109E6000EED0EFE7230B0308CBB26FEA112110B558
:109E7000C9B2082411F0800F4FEA410101D081F0EE
:109E80003101013C14F0FF04C9B2F3D14B40082466
:109E900013F0800F4FEA430101D081F03101013C02
:109EA00014F0FF04CBB2F3D19A4218BF0224817997
:109EB00014BF44724472054A204614BF4FF4D37352
:109EC0004FF4D473FFF751FF204610BD230B030856
:109ED0002DE9F0410446FFF7ADFF014630B12046C1
:109EE000314ABDE8F041A923FFF749BF2046FFF7FB
:109EF00085FF054630B16072AF232B4AA179FFF789
:109F000034FF19E04EF6C8712046FFF7E3FE054620
:109F1000074610B16072B523EFE720680322702175
:109F200022F0BFFA0328054609D01F4ABB230121AE
:109F30002046FFF71BFF01252846BDE8F081206879
:109F400003685B6998478046206803685B699847A7
:109F50000646206803685B699847F1B241EA082128
:109F600089B2C2B2618227732046FFF77DFF08B92C
:109F700001232373638A23F4F8631B051B0D40F64A
:109F80000702934203D003206072CE23B5E7204638
:109F9000FFF71AFFA1796072054610B1D423024A77
:109FA000ADE7D723FBE700BF230B030838B50160FB
:109FB0000546FFF73FFF044638B168728123114A16
:109FC000A979FFF7D2FE204638BD01462846FFF7A3
:109FD00015FF044610B168728723F0E72846FFF7A3
:109FE00077FF044610B168728D23E8E72846FFF733
:109FF000EBFEA9796872044610B19323014AE0E7A9
:10A000009623FBE7230B03082DE9F0470446FFF7EF
:10A0100011FF014638B14FF49473604A2046BDE801
:10A02000F047FFF7ACBEA1882046FFF753FE01467C
:10A0300010B140F23113F0E7A38846F25842934240
:10A0400008D011D844F2DE42934203D045F62442B0
:10A0500093420CD120680622702122F022FA0628B1
:10A060000AD040F2491304E047F6A242F0E74FF469
:10A07000A1734A4A0121D1E7A38846F29C02934288
:10A080001FD012D845F6E00293423CD00AD844F2E1
:10A090001A02934237D044F2DE42934233D040F268
:10A0A0006B13E6E745F62442F7E747F6660293426C
:10A0B00007D047F6A242934203D046F25842934259
:10A0C000EDD1206803685B6998475FFA80FA2068E1
:10A0D00003685B699847C7B2206803685B69984763
:10A0E0005FFA80F9206803685B6998475FFA80F837
:10A0F000206803685B699847C5B2206803685B699C
:10A100009847C6B220E0206803685B6998475FFA09
:10A1100080F8206803685B699847C5B220680368C7
:10A120005B699847C6B2206803685B6998475FFA25
:10A1300080FA206803685B699847C7B220680368A3
:10A140005B6998475FFA80F945EA082147EA0A27E0
:10A150000023E1812782638132462046FFF784FE97
:10A1600008B90123A372218A4A462046FFF77CFEE4
:10A1700008B90123E3722046FFF726FEA179607239
:10A18000054638B140F28513044AFFF7EEFD284634
:10A19000BDE8F0874FF4C473F6E700BF230B030854
:10A1A00002F06EBD02F071BD7047000070B5002373
:10A1B00086B0CDE904334FF0B0420F4DD16C41F081
:10A1C0000201D164D26C039302F002024FF4805674
:10A1D000009201A92846CDE90163009A0DF090FA9A
:10A1E000314628460DF0ACFB3146044628460DF0BA
:10A1F00033FB204606B070BD000400480D207047B8
:10A200004FF0B04382B0DA6C0243DA64DB6C184082
:10A210000190019B02B070472DE9F04186B01422F5
:10A22000002101A800F09AFB0220FFF7E9FF144D7E
:10A23000144F0420FFF7E4FF4FF48076012300243D
:10A24000CDE9016301A903232846CDE903434FF477
:10A2500000580DF055FA01A93846CDF804800DF0EC
:10A260004FFA2246414638460DF070FB28462246FA
:10A2700031460DF06BFB204606B0BDE8F08100BF13
:10A280000004004800080048032810B50ED8012833
:10A2900010D868B902460B484FF480710DF056FB98
:10A2A000002209484FF400510DF050FB002010BD72
:10A2B0000122F0E7002203484FF480710DF046FBC5
:10A2C0000122EEE700040048000800480220704721
:10A2D000002070470120704708B5022021F003FEDE
:10A2E00008BD10B59AB04822002108A800F036FB3E
:10A2F0001822002102A800F031FB0EF0E3F94FF024
:10A30000B0420024D2F8903023F01803C2F8903005
:10A31000D2F8003423F4C06343F40073C2F800346D
:10A32000D2F80034119403F4C0630193019B2623F7
:10A33000089381230B93012310934FF480730C93A4
:10A3400040230D9308A8B023CDE912340EF0F0FAA3
:10A3500008B102F0BDFE4F23022102A8CDE902346C
:10A36000CDE90444CDE906440EF082FD08B102F0C7
:10A37000AFFE1AB010BD000013B50378082B16D835
:10A38000DFE803F0179DA215AAAA0515AE0004790F
:10A3900020460BF0B3FD012802D1204609F016FE3D
:10A3A000204609F011FC002120460BF0AFFD02B061
:10A3B00010BD00200BF0A2FD022831D101200BF0CE
:10A3C0009DFD022804D0012021F084FA002843DCFE
:10A3D00002200BF093FD0228E9D0022021F07AFA46
:10A3E0000028E4DD012201A9022021F03BF902202E
:10A3F0000BF084FD002850D00128EED19DF8041008
:10A40000022009F0F9FCE8E7012201A9002021F06F
:10A4100029F900200BF072FD044638B1012815D04F
:10A42000002021F057FA0028EEDCC7E721F02EFAD1
:10A4300020B99DF8041009F033FBF1E70128EFD1B2
:10A440009DF80410204621F07BF9E9E79DF80410FF
:10A45000002009F0D1FCE3E7012201A9104621F018
:10A4600001F901200BF04AFD30B10128ABD19DF874
:10A47000041009F0C1FCA6E7012021F007FA28B971
:10A480009DF80410012009F00BFB9CE701289AD1EC
:10A490009DF8041021F054F995E7022021F0F6F917
:10A4A00028B99DF80410022009F0FAFA95E701286E
:10A4B00093D19DF80410022021F042F98DE713F0AA
:10A4C0000FFD04F0F9FD72E7074B1B68002B3FF40A
:10A4D0006EAF406898476AE7406821F08BFB66E7FB
:10A4E000406821F061FC62E71463002030B52E4B18
:10A4F0002E4A9A6085B00CF019FAFFF7F2FE4FF081
:10A50000B0430B209A6C42F004029A649A6C02F0F9
:10A5100004020392039A9A6C42F001029A649B6CC3
:10A52000002203F0010311460293029B0CF066FE29
:10A530000B200CF095FE21F03FFB0BF0B1FC0BF073
:10A5400071FD002401460546234603220120CDE982
:10A55000004420F0C1FF2346032229460220CDE912
:10A56000004420F0B9FF03F0DDFB04F0CDFDE5B2BF
:10A5700028460BF0C3FC10B9284609F025FB01342E
:10A58000032CF4D10024E0B20BF0B8FC012802D176
:10A59000204609F0F7FC0134032CF4D105B0BDE8E6
:10A5A000304021F029BB00BF00ED00E00060000852
:10A5B00021F030BBF7B5FFF799FF4FF0B0432E4EB7
:10A5C000DA6C2E4C42F00202DA64DB6C03F0020318
:10A5D0000193019B06F060F8294B341B1427474375
:10A5E00000251C44BD4223D31FF07CFAFFF7DEFD9B
:10A5F00098B3244803F0FDF8234B24481A68244BF1
:10A60000196803F0F6F8234820F0F0FF03F052FC3D
:10A61000012824D0022824D010B91F4820F0E6FFDA
:10A620001E4C21F0F7FA2378EBB91FF05DFAF8E73A
:10A630006A460421601921F039FA6946324604233A
:10A6400012F801CB11F8010B844518BF02F8010C78
:10A65000013BF5D104350436C4E71148CAE7114877
:10A66000DCE71148DAE70BF08FFC0028D9D0002096
:10A6700021F054FBD5E700BF880300200000002034
:10A6800060440308870B0308C00000209D0B0308EB
:10A69000D8000020AD0B0308C10B0308E40D002017
:10A6A000920B0308CD0B0308D80B0308054808B527
:10A6B000082303600EF0D0FF18B1BDE8084002F097
:10A6C00007BD08BD785D00204FF0B04307B55A6E56
:10A6D00042F001025A665B6E002203F0010301930F
:10A6E00011463220019B0CF089FD322003B05DF849
:10A6F00004EB0CF0B5BD0000024B9868024BC04360
:10A700001860704700280040E80D0020014B1868D1
:10A71000704700BFE80D0020034B044A9B68106897
:10A72000DB43181A704700BF00280040E80D0020E6
:10A73000034B187810B1034B9868C043704700BFB3
:10A74000E50D0020002800400320704708B50146B1
:10A750004FF47A7200238002890DFCF721FD08BDB9
:10A760004FF47A72A0FB0223900A40EA83507047AC
:10A7700010B5074B074C0122DA654FF48071204673
:10A780000EF074FC4FF0FF332363002010BD00BFB8
:10A7900000280040F85D00200246002101480EF02C
:10A7A000A0BE00BFF85D00200246012101480EF066
:10A7B00098BE00BFF85D002010B58CB02C2200219F
:10A7C000044601A800F0CAF8FFF7D2FF0C4B186846
:10A7D00000230444089306934FF00053E443079387
:10A7E000084802944FF48073012201A90B930EF0E4
:10A7F00053FD08B102F06CFC00200CB010BD00BF8E
:10A80000E80D0020F85D00200C4B70B59C680646F2
:10A8100002210B480EF06CFEE44300221219C2F331
:10A8200009044FF47A71A4FB014540F10003A40A26
:10A83000900A348040EA835070BD00BF0028004079
:10A84000F85D0020014800210EF052BEF85D0020A6
:10A85000014801210EF04CBEF85D0020F8B5114E04
:10A860003578E5B9104C2A4629464FF0FF3728467F
:10A87000276302F061F9FFF77BFF4FF480712046F8
:10A880000EF0F4FB204627630EF0E6FD2A46022177
:10A8900020460EF026FEFFF72FFF01233370002025
:10A8A000F8BD00BFE50D0020F85D002012F0D8B81B
:10A8B0000B460146184600F001B8000010B50446EA
:10A8C0000448134620B10A4602202146AFF3008017
:10A8D00010BD00BF0000000070B50D4D0D4C641B95
:10A8E000A4100026A64209D10B4D0C4C25F0DAFB32
:10A8F000641BA4100026A64205D170BD55F8043B88
:10A9000098470136EEE755F8043B98470136F2E7E1
:10A9100038440308384403083844030854440308FF
:10A92000024B0146186800F06FB800BFDC00002041
:10A93000024B0146186800F019B800BFDC00002087
:10A940000A44914200F1FF3300D1704710B511F86D
:10A95000014B03F8014F9142F9D110BD0244034667
:10A96000934200D1704703F8011BF9E738B505465B
:10A97000002945D051F8043C0C1F002BB8BFE41847
:10A9800001F0F8FB1F4A1368104633B96360146086
:10A990002846BDE8384001F0F3BBA3420BD921683B
:10A9A0006218934204BF1A685B68636004BF521860
:10A9B00022600460ECE71A465B680BB1A342FAD947
:10A9C00011685018A0420BD12068014450188342EE
:10A9D0001160DDD118685B68536001441160D7E7EE
:10A9E00002D90C232B60D3E7206821188B4204BFC7
:10A9F00019685B68636004BF091821605460C7E789
:10AA000038BD00BFEC0D0020F8B5CD1C25F00305C6
:10AA100008350C2D38BF0C25002D064601DBA94258
:10AA200003D90C2333600020F8BD01F0A3FB2149BA
:10AA30000A6814469CB9204F3B6823B9214630462A
:10AA400000F098FC38602946304600F093FC431C27
:10AA500023D10C233360304601F092FBE3E72368F7
:10AA60005B1B17D40B2B03D923601C44256004E027
:10AA70006368A2420CBF0B605360304601F080FB5C
:10AA800004F10B00231D20F00700C21ACCD01B1AC2
:10AA9000A350C9E722466468CCE7C41C24F0030431
:10AAA000A042E3D0211A304600F064FC0130DDD131
:10AAB000CFE700BFEC0D0020F00D00202DE9F0479E
:10AAC00088B0002B1F461446B8BF03F10043129A0A
:10AAD000109DDDF84CA0B6BF1F4600232D23137038
:10AAE000149B23F02008B8F1460F05D0B8F1450FAC
:10AAF00000D10135022300E0032307AA049206AA2D
:10AB0000CDE902A2CDE9003522463B4600F05CFDCE
:10AB1000B8F1470F064602D1119BDB0722D5B8F1E9
:10AB2000460F06EB050910D13378302B0AD10022ED
:10AB3000002320463946FBF7AFFF18B9C5F10105E0
:10AB4000CAF80050DAF80030994400220023204669
:10AB50003946FBF7A1FF08B1CDF81C903022079BC6
:10AB60004B4507D3079B159A9B1B3046136008B0D3
:10AB7000BDE8F087591C07911A70F0E7F7B5034656
:10AB80000029B8BF494203F8022BB4BF2D222B2263
:10AB9000092942702ADD0DF10704A4460A27A646BA
:10ABA0000A4691FBF7F607FB16153035632A04F1C8
:10ABB000FF340EF8015C3146F1DC3031AEF10205B4
:10ABC00004F8011C441C294661450AD30DF1090211
:10ABD000A2EB0E02654588BF00221344181A03B089
:10ABE000F0BD11F8012B04F8012FEDE730233031CF
:10ABF0008370C170031DF1E72DE9F04F91B00C4651
:10AC0000DDF8688016461F46054601F0AFFA036876
:10AC100009931846FBF7BEFA00230E93D8F80030CC
:10AC20000A90073323F0070303F1080294F8189001
:10AC3000D4F800B0C8F80020D3E90023C4E91223F7
:10AC4000D4E9128A2AF000430B930B999C4B4FF0E6
:10AC5000FF324046FBF752FF70BB994B0B994FF008
:10AC6000FF324046FBF72CFF30BB0022002340465A
:10AC70005146FBF71BFF10B12D2384F84330914B55
:10AC80009148B9F1470F94BF98468046032323614A
:10AC90002BF0040323604FF0000A009733460FAAFD
:10ACA0002146284600F0D2F9013040F08F804FF065
:10ACB000FF3011B0BDE8F08F424653464046514642
:10ACC000FBF71CFF40B1BAF1000FBCBF2D2384F885
:10ACD00043307E487E4BD4E763685A1C09F0DF019D
:10ACE00042D106236360002206920EAACDE90492A7
:10ACF0000DAA4BF4806303920DF13302CDE90132CA
:10AD00002360636800934246534628460B91FFF741
:10AD1000D5FE0B99472980460D9908D1C81C02DB46
:10AD20006368994240DDA9F102095FFA89F9B9F136
:10AD3000650F1FD801394A4604F150000D91FFF705
:10AD40001DFF0E9A1318012A8246236102DC226835
:10AD5000D20701D5013323619DF83330002B9CD0FD
:10AD60002D2384F8433098E74729BCD1002BBAD172
:10AD70000123B7E7B9F1660F18D1002963680BDD2D
:10AD8000216113B92268D00702D501330B44236136
:10AD9000A1654FF0000ADFE713B92268D20701D599
:10ADA0000233F4E70123F2E74FF067090E9B994263
:10ADB00005DB23682161D807EAD54B1CE7E70029AA
:10ADC000D4BFC1F1020201221344E0E723685A050F
:10ADD00007D42369424631462846B84701302BD173
:10ADE00065E7B9F1650F40F2DC80D4E91201002279
:10ADF0000023FBF751FE002833D0364A01233146A9
:10AE00002846B84701303FF452AFDDE90D239A429E
:10AE100002DB2368D8070FD5DDE909233146284630
:10AE2000B84701303FF443AF4FF0000804F11A096E
:10AE30000E9B013B434509DC23689B0700F1018120
:10AE4000E0680F9B9842B8BF184632E701234A4694
:10AE500031462846B84701303FF429AF08F10108D0
:10AE6000E6E70D9B002B37DC1A4A012331462846C2
:10AE7000B84701303FF41BAFDDE90D23134302D186
:10AE80002368D907D8D5DDE9092331462846B847D4
:10AE900001303FF40CAF4FF0000904F11A0A0D9B8A
:10AEA0005B424B4501DC0E9B94E701235246314641
:10AEB0002846B84701303FF4FAAE09F10109EEE740
:10AEC000FFFFEF7F0B0D03080F0D0308170D03089D
:10AED000130D03083C2E03080E9AA36D9A42A8BFD7
:10AEE0001A46002A914637DC4FF0000B29EAE9792F
:10AEF00004F11A02D4F858A0AAEB09035B4533DC2D
:10AF0000DDE90D239A423BDB2368DA0738D40E9A39
:10AF10000D99A2EB0A03A2EB01099945A8BF994636
:10AF2000B9F1000F34DC4FF0000829EAE97904F1A7
:10AF30001A0ADDE90D239B1AA3EB090343457FF7AA
:10AF40007BAF0123524631462846B84701303FF4D3
:10AF5000AEAE08F10108ECE71346314642462846FA
:10AF6000B8470130C0D1A2E60123314628460B92F2
:10AF7000B84701303FF49BAE0B9A0BF1010BB9E7D8
:10AF8000DDE9092331462846B8470130BFD18EE6B6
:10AF90004B4608EB0A0231462846B8470130C2D179
:10AFA00085E60E9A012A01DCDB0737D501234246EC
:10AFB00031462846B84701303FF479AEDDE9092330
:10AFC00031462846B84701303FF471AED4E912014A
:10AFD00000220023FBF760FDD8B90E9B08F10102A7
:10AFE000013B31462846B84701300ED15FE60123C8
:10AFF0004A4631462846B84701303FF458AE08F17A
:10B0000001080E9B013B4345F1DC534604F150021D
:10B01000E1E64FF0000804F11A09F2E70123424685
:10B02000DFE701234A4631462846B84701303FF45E
:10B030003EAE08F10108E3680F995B1A4345F0DC66
:10B04000FEE64FF0000804F11909F4E72DE9F04796
:10B05000164699468A680B69DDF820809342B8BF8E
:10B060001346336091F8432007460C460AB101337A
:10B0700033602368990642BF336802333360256822
:10B0800015F0060506D104F1190AE36832689B1A27
:10B09000AB4226DC94F84320131E226818BF01231C
:10B0A00092062BD404F1430249463846C04701308A
:10B0B0001ED02368E568326803F00603042B08BF3E
:10B0C000AD1AA36822690CBF25EAE57500259342F5
:10B0D000C4BF9B1AED1800261A34B5421AD10020BD
:10B0E00008E00123524649463846C047013003D1A3
:10B0F0004FF0FF30BDE8F0870135C6E7E1185A1C74
:10B10000302081F84300224494F8451082F843101F
:10B110000233C7E70123224649463846C04701307B
:10B12000E6D00136D9E700002DE9FF470C469146ED
:10B13000277E0C99782F80469A4604F1430207D85F
:10B14000622F0AD8002F00F0D880582F00F0A3807B
:10B1500004F1420684F842703AE0A7F16303152B2C
:10B16000F6D801A050F823F0C1B10008D5B100080D
:10B1700051B1000851B1000851B1000851B10008A7
:10B18000D5B1000851B1000851B1000851B1000813
:10B1900051B10008E1B2000805B20008C3B20008CE
:10B1A00051B1000851B1000803B3000851B10008C3
:10B1B00005B2000851B1000851B10008CBB2000837
:10B1C0000B681A1D1B680A6004F1420684F84230BD
:10B1D0000123A3E0256808682E0600F104030AD5C0
:10B1E00005680B60002D03DA2D236D4284F843308F
:10B1F0005E480A2319E015F0400F05680B6018BF80
:10B200002DB2EFE70B682568181D0860280601D5E8
:10B210001D6802E06906FBD51D8854486F2F0CBFDE
:10B2200008230A23002184F843106668A660002ED4
:10B23000A2BF216821F0040121600DB9002E4DD07C
:10B240001646B5FBF3F103FB1157C75D06F8017D08
:10B250002F46BB420D46F4D9082B0BD12368DF07DC
:10B2600008D5236961689942DEBF302306F8013CA6
:10B2700006F1FF36921B2261CDF800A04B4603AACF
:10B2800021464046FFF7E2FE01304CD14FF0FF303F
:10B2900004B0BDE8F087354884F8457023680E682F
:10B2A0001F0656F8045B0E6014D5D90744BF43F05F
:10B2B000200323601DB9236823F02003236010239B
:10B2C000B0E7236843F0200323607823284884F8FC
:10B2D0004530E3E75E0648BFADB2E6E71646BBE79A
:10B2E0000B68266860691D1D0D6035061B6801D559
:10B2F000186002E07106FBD5188000232361164612
:10B30000BAE70B681A1D0A601E68626800213046A1
:10B31000FAF74EFF08B1801B606063682361002369
:10B3200084F84330A8E72369324649464046D0476F
:10B330000130ABD023689B0713D4E068039B98428D
:10B34000B8BF1846A4E70123324649464046D047D5
:10B3500001309BD00135E36803995B1AAB42F2DC04
:10B36000EBE7002504F11906F5E700BF1B0D030804
:10B370002C0D030838B5064D0023044608462B6003
:10B3800001F03CFA431C02D12B6803B1236038BDA5
:10B39000845D0020034611F8012B03F8012B002ADD
:10B3A000F9D170472DE9F0433B4E86468C46604606
:10B3B0001CF8014BA55D15F00805F8D12D2C34D1F2
:10B3C0009CF800404FF0010800F1020C002B5ED009
:10B3D000102B0CD1302C0AD19CF8000000F0DF00BB
:10B3E00058284FD19CF8014010230CF1020C4FF06B
:10B3F000FF370025B7FBF3F703FB07F96FEA0909ED
:10B400002846A4F13006092E18D83446A34224DD7C
:10B41000002D1FDB87421DD301D1A1451ADB00FBA4
:10B42000034001251CF8014BEBE72B2C08BF9CF8CF
:10B430000040A84608BF00F1020CC7E7A4F141068E
:10B44000192E01D8373CE1E7A4F16106192E04D882
:10B45000573CDBE74FF0FF35E4E7002D07DA222306
:10B46000CEF800304FF0FF3042B9BDE8F083B8F1BC
:10B47000000F00D04042002AF7D00DB10CF1FF318F
:10B480001160F2E73024002BB1D10823AFE7302C54
:10B49000A2D00A23ABE700BF3E0D030813460A46BD
:10B4A000014602480068FFF77DBF00BFDC000020B6
:10B4B0002DE9F74F03690C69A3420746C0F281806A
:10B4C000013C01F1140800F1140505EB840301931C
:10B4D00058F8243055F8242001339A424FEA840B5F
:10B4E00008EB8409B2FBF3F631D34FF0000E40466F
:10B4F000AC46F24650F8042B93B206FB03E34FEA46
:10B50000134E9BB2AAEB0303120CDCF800A006FB5F
:10B5100002E213FA8AF34FEA124E1FFA82FADCF8BB
:10B520000020CAEB124202EB23429BB243EA0243E1
:10B5300081454CF8043B4FEA224ADBD255F80B30E8
:10B540002BB9019B043B9D421A462ED33C613846E1
:10B5500001F045F8002824DB013628464FF0000CA6
:10B5600058F8042BD0F800E093B2ACEB0303120CB4
:10B5700013FA8EF3C2EB1E4202EB23429BB243EA64
:10B580000243C14540F8043B4FEA224CE8D255F84B
:10B59000242005EB840322B9043B9D421A460AD3BA
:10B5A0003C61304603B0BDE8F08F1268043B002ACE
:10B5B000CCD1013CC7E71268043B002AF0D1013C22
:10B5C000EBE70020EEE700002DE9F04F446A99B068
:10B5D00016461F46CDE90467DDF8948005463CB960
:10B5E0001020FFF79DF9C0E9014468620460C4605F
:10B5F0006B6A196851B15A684A60012393408B60A5
:10B60000284600F0F7FD6B6A00221A603B1EB9BFA6
:10B6100023F0004305930023C8F80030DDF81490B0
:10B62000A74BBCBF0122C8F8002033EA090319D197
:10B63000249A42F20F731360C9F31303334300F0EB
:10B640006D85269B53B99F4B23E09F4B0393083393
:10B65000269A1360039819B0BDE8F08F994B0393B5
:10B660000333F5E7DDE90434CDE90C34DDE90C0101
:10B6700000220023FBF710FA804660B1249A0123D0
:10B680001360269B002B00F04685904B269A136092
:10B69000013B0393DEE716AB019317AB00932846FB
:10B6A000DDE90C2301F02CF8C9F30A548346002C81
:10B6B0007ED00D9BCDF84C80C3F31303DDE90C0164
:10B6C00043F07F5141F44011A4F2FF34804B00223B
:10B6D000FAF7C2FD74A3D3E90023FAF775FF74A348
:10B6E000D3E90023FAF7BAFD064620460F46FAF7DB
:10B6F00001FF71A3D3E90023FAF766FF02460B4668
:10B7000030463946FAF7AAFD06460F46FBF70CFA13
:10B7100000228246002330463946FBF7C7F948B17C
:10B720005046FAF7E7FE32463B46FBF7B5F908B953
:10B730000AF1FF3ABAF1160F57D8664B03EBCA036A
:10B74000D3E90023DDE90C01FBF7B0F900284ED066
:10B750000AF1FF3A00230F93169B1C1B631E0993EB
:10B7600045BFC4F101030693002300234CBF099396
:10B770000693BAF1000F3CDB099BCDF838A0534487
:10B78000099300230A93229B092B00F2B580052B15
:10B79000C4BF043B2293229BA3F10203CCBF00242D
:10B7A0000124032B00F2B480DFE803F02D987AA483
:10B7B000DDE916431C4404F23243202BC3BFC3F11E
:10B7C000400304F2124009FA03F3C3F12003C6BF99
:10B7D00026FA00F0184306FA03F0FAF77BFE01237D
:10B7E000A1F1F871013C139370E70123B3E70F90C7
:10B7F000B2E7069BA3EB0A030693CAF100030A9380
:10B8000000230E93BFE700230B93239B002B00F331
:10B8100082804FF00109CDF820904B46CDF88C90F6
:10B820006E6A00227260042202F11400984271686C
:10B8300077D9284600F0AAFC6B6A30601B68039336
:10B84000089B0E2B00F2EE80002C00F0EB80BAF18A
:10B85000000F7ADD1F4A0AF00F0302EBC303D3E99E
:10B8600000341AF4807FCDE910344FEA2A145CD0FA
:10B87000194BDDE90C01D3E90823FAF7CFFFCDE935
:10B88000040104F00F040327134E002C4FD1DDE90F
:10B890001023DDE90401FAF7C1FFCDE904016EE0F0
:10B8A0000123B1E7AFF3008061436F63A787D23F05
:10B8B000B3C8608B288AC63FFB799F501344D33F9F
:10B8C0000000F07F470E03083E0E03083D2E0308DC
:10B8D0000000F83F780E0308500E030800230B9376
:10B8E000239B0AEB030909F10103012B0893B8BF5D
:10B8F000012395E70123F2E70124002322930B940F
:10B900004FF0FF390022CDF820901223239287E7D1
:10B9100001230B93F4E7DDF88C90CDF820904B4693
:10B920007EE70131716052007EE70227ACE7E10754
:10B9300008D5DDE91001D6E90023FAF745FECDE987
:10B9400010010137641008369FE700F0A580CAF1A6
:10B950000004A44BA44E04F00F0203EBC203D3E98E
:10B960000023DDE90C01FAF72FFECDE904012411D3
:10B9700000230227002C40F08480002B8DD10F9BE8
:10B98000002B00F08B80DDE90434CDE91034DDE9D3
:10B990001001964B0022FBF789F800287ED0089B07
:10B9A000002B7BD0B9F1000F38DDDDE91001904BA1
:10B9B0000022FAF709FECDE904010AF1FF38013748
:10B9C0004C463846FAF796FDDDE90423FAF7FCFD0C
:10B9D000884B0022FAF742FCA1F15076CDE9100124
:10B9E0001196002C5DD1DDE90401834B0022FAF7AA
:10B9F00033FC02460B46CDE90423109A3346FBF78D
:10BA000073F8002840F09782DDE90401109A06F1EE
:10BA10000043FBF74BF8002840F08B82DDE90C3443
:10BA2000CDE90434179B002BC0F25181BAF10E0FFF
:10BA300000F34D816B4B03EBCA03D3E90034CDE92E
:10BA40000634239B002B80F2DB80089B002B00F345
:10BA5000D78040F06D82684B0022DDE90601FAF7DD
:10BA6000B3FDDDE90423FBF735F8089C26460028E2
:10BA700040F04382039F312307F8013B0AF1010A9A
:10BA80003FE2E20705D5D6E90023FAF79DFD01372D
:10BA90000123641008366DE7022770E7089CD04642
:10BAA0008FE703994F4B214412910B9903EBC40389
:10BAB000DDE9106753E90223002946D04F490020F1
:10BAC000FAF7ACFE3B463246FAF7C6FBCDE9100169
:10BAD000039FDDE90401FBF727F80446FAF70AFDA6
